{
  "contractName": "Voting",
  "abi": [
    {
      "inputs": [],
      "stateMutability": "nonpayable",
      "type": "constructor"
    },
    {
      "anonymous": false,
      "inputs": [],
      "name": "NewVotingSystem",
      "type": "event"
    },
    {
      "anonymous": false,
      "inputs": [
        {
          "indexed": true,
          "internalType": "address",
          "name": "previousOwner",
          "type": "address"
        },
        {
          "indexed": true,
          "internalType": "address",
          "name": "newOwner",
          "type": "address"
        }
      ],
      "name": "OwnershipTransferred",
      "type": "event"
    },
    {
      "anonymous": false,
      "inputs": [
        {
          "indexed": false,
          "internalType": "uint256",
          "name": "proposalId",
          "type": "uint256"
        }
      ],
      "name": "ProposalRegistered",
      "type": "event"
    },
    {
      "anonymous": false,
      "inputs": [],
      "name": "ProposalsRegistrationEnded",
      "type": "event"
    },
    {
      "anonymous": false,
      "inputs": [],
      "name": "ProposalsRegistrationStarted",
      "type": "event"
    },
    {
      "anonymous": false,
      "inputs": [
        {
          "indexed": false,
          "internalType": "address",
          "name": "voter",
          "type": "address"
        },
        {
          "indexed": false,
          "internalType": "uint256",
          "name": "proposalId",
          "type": "uint256"
        }
      ],
      "name": "Voted",
      "type": "event"
    },
    {
      "anonymous": false,
      "inputs": [
        {
          "indexed": false,
          "internalType": "address",
          "name": "voterAddress",
          "type": "address"
        }
      ],
      "name": "VoterRegistered",
      "type": "event"
    },
    {
      "anonymous": false,
      "inputs": [
        {
          "indexed": false,
          "internalType": "address",
          "name": "voterAddress",
          "type": "address"
        }
      ],
      "name": "VoterRemoved",
      "type": "event"
    },
    {
      "anonymous": false,
      "inputs": [
        {
          "indexed": false,
          "internalType": "uint8",
          "name": "_winningProposals",
          "type": "uint8"
        }
      ],
      "name": "VotesTallied",
      "type": "event"
    },
    {
      "anonymous": false,
      "inputs": [],
      "name": "VotingSessionEnded",
      "type": "event"
    },
    {
      "anonymous": false,
      "inputs": [],
      "name": "VotingSessionStarted",
      "type": "event"
    },
    {
      "anonymous": false,
      "inputs": [
        {
          "indexed": false,
          "internalType": "enum Voting.WorkflowStatus",
          "name": "previousStatus",
          "type": "uint8"
        },
        {
          "indexed": false,
          "internalType": "enum Voting.WorkflowStatus",
          "name": "newStatus",
          "type": "uint8"
        }
      ],
      "name": "WorkflowStatusChange",
      "type": "event"
    },
    {
      "inputs": [],
      "name": "owner",
      "outputs": [
        {
          "internalType": "address",
          "name": "",
          "type": "address"
        }
      ],
      "stateMutability": "view",
      "type": "function",
      "constant": true
    },
    {
      "inputs": [],
      "name": "proposalIds",
      "outputs": [
        {
          "internalType": "uint8",
          "name": "",
          "type": "uint8"
        }
      ],
      "stateMutability": "view",
      "type": "function",
      "constant": true
    },
    {
      "inputs": [
        {
          "internalType": "uint256",
          "name": "",
          "type": "uint256"
        }
      ],
      "name": "proposals",
      "outputs": [
        {
          "internalType": "uint8",
          "name": "id",
          "type": "uint8"
        },
        {
          "internalType": "address",
          "name": "owner",
          "type": "address"
        },
        {
          "internalType": "string",
          "name": "description",
          "type": "string"
        },
        {
          "internalType": "uint256",
          "name": "voteCount",
          "type": "uint256"
        }
      ],
      "stateMutability": "view",
      "type": "function",
      "constant": true
    },
    {
      "inputs": [],
      "name": "renounceOwnership",
      "outputs": [],
      "stateMutability": "nonpayable",
      "type": "function"
    },
    {
      "inputs": [],
      "name": "status",
      "outputs": [
        {
          "internalType": "enum Voting.WorkflowStatus",
          "name": "",
          "type": "uint8"
        }
      ],
      "stateMutability": "view",
      "type": "function",
      "constant": true
    },
    {
      "inputs": [
        {
          "internalType": "address",
          "name": "newOwner",
          "type": "address"
        }
      ],
      "name": "transferOwnership",
      "outputs": [],
      "stateMutability": "nonpayable",
      "type": "function"
    },
    {
      "inputs": [
        {
          "internalType": "address",
          "name": "",
          "type": "address"
        }
      ],
      "name": "whiteList",
      "outputs": [
        {
          "internalType": "bool",
          "name": "isRegistered",
          "type": "bool"
        },
        {
          "internalType": "address",
          "name": "_address",
          "type": "address"
        },
        {
          "internalType": "bool",
          "name": "hasVoted",
          "type": "bool"
        },
        {
          "internalType": "uint256",
          "name": "votedProposalId",
          "type": "uint256"
        }
      ],
      "stateMutability": "view",
      "type": "function",
      "constant": true
    },
    {
      "inputs": [],
      "name": "winningProposalId",
      "outputs": [
        {
          "internalType": "uint8",
          "name": "",
          "type": "uint8"
        }
      ],
      "stateMutability": "view",
      "type": "function",
      "constant": true
    },
    {
      "inputs": [],
      "name": "getWinningProposal",
      "outputs": [
        {
          "components": [
            {
              "internalType": "uint8",
              "name": "id",
              "type": "uint8"
            },
            {
              "internalType": "address",
              "name": "owner",
              "type": "address"
            },
            {
              "internalType": "string",
              "name": "description",
              "type": "string"
            },
            {
              "internalType": "uint256",
              "name": "voteCount",
              "type": "uint256"
            }
          ],
          "internalType": "struct Voting.Proposal",
          "name": "proposal",
          "type": "tuple"
        }
      ],
      "stateMutability": "view",
      "type": "function",
      "constant": true
    },
    {
      "inputs": [
        {
          "internalType": "address",
          "name": "_address",
          "type": "address"
        }
      ],
      "name": "addVoter",
      "outputs": [],
      "stateMutability": "nonpayable",
      "type": "function"
    },
    {
      "inputs": [
        {
          "internalType": "address",
          "name": "_address",
          "type": "address"
        }
      ],
      "name": "deleteVoter",
      "outputs": [],
      "stateMutability": "nonpayable",
      "type": "function"
    },
    {
      "inputs": [],
      "name": "startProposalRegistration",
      "outputs": [],
      "stateMutability": "nonpayable",
      "type": "function"
    },
    {
      "inputs": [],
      "name": "endProposalRegistration",
      "outputs": [],
      "stateMutability": "nonpayable",
      "type": "function"
    },
    {
      "inputs": [],
      "name": "startVotingSession",
      "outputs": [],
      "stateMutability": "nonpayable",
      "type": "function"
    },
    {
      "inputs": [],
      "name": "endVotingSession",
      "outputs": [],
      "stateMutability": "nonpayable",
      "type": "function"
    },
    {
      "inputs": [
        {
          "internalType": "string",
          "name": "_description",
          "type": "string"
        }
      ],
      "name": "addProposal",
      "outputs": [],
      "stateMutability": "nonpayable",
      "type": "function"
    },
    {
      "inputs": [
        {
          "internalType": "uint256",
          "name": "_id",
          "type": "uint256"
        }
      ],
      "name": "deleteProposal",
      "outputs": [],
      "stateMutability": "nonpayable",
      "type": "function"
    },
    {
      "inputs": [
        {
          "internalType": "uint256",
          "name": "_id",
          "type": "uint256"
        }
      ],
      "name": "deleteProposalAdmin",
      "outputs": [],
      "stateMutability": "nonpayable",
      "type": "function"
    },
    {
      "inputs": [
        {
          "internalType": "uint256",
          "name": "_id",
          "type": "uint256"
        }
      ],
      "name": "vote",
      "outputs": [],
      "stateMutability": "nonpayable",
      "type": "function"
    },
    {
      "inputs": [],
      "name": "count",
      "outputs": [],
      "stateMutability": "nonpayable",
      "type": "function"
    }
  ],
  "bytecode": "0x608060405234801561001057600080fd5b5060006100216100f060201b60201c565b9050806000806101000a81548173ffffffffffffffffffffffffffffffffffffffff021916908373ffffffffffffffffffffffffffffffffffffffff1602179055508073ffffffffffffffffffffffffffffffffffffffff16600073ffffffffffffffffffffffffffffffffffffffff167f8be0079c531659141344cd1fd0a4f28419497f9722a3daafe3b4186f6b6457e060405160405180910390a3507f28c5e727295d809da653948416bdc4fe30913878a5f1332ded39bc4730d10c5660405160405180910390a16100f8565b600033905090565b6124e0806101076000396000f3fe608060405234801561001057600080fd5b506004361061012c5760003560e01c80638259d553116100ad578063c64963c511610071578063c64963c5146102c3578063e85a8f2a146102e1578063ee74c678146102eb578063f2fde38b146102f5578063f4ab9adf146103115761012c565b80638259d5531461024557806388e1c739146102615780638da5cb5b1461027d578063a51346201461029b578063a7bfab16146102b95761012c565b80632d5de3c9116100f45780632d5de3c9146101b25780632fdae3c5146101ce578063372c12b1146101ea5780633d5af2ed1461021d578063715018a61461023b5761012c565b80630121b93f14610131578063013cf08b1461014d57806306661abd146101805780630f7e28381461018a578063200d2ed214610194575b600080fd5b61014b60048036038101906101469190611eb2565b61032d565b005b61016760048036038101906101629190611eb2565b610511565b6040516101779493929190612251565b60405180910390f35b610188610606565b005b610192610814565b005b61019c61096f565b6040516101a99190612175565b60405180910390f35b6101cc60048036038101906101c79190611eb2565b610982565b005b6101e860048036038101906101e39190611e71565b610ab6565b005b61020460048036038101906101ff9190611e48565b610d35565b6040516102149493929190612130565b60405180910390f35b610225610d9f565b6040516102329190612236565b60405180910390f35b610243610db2565b005b61025f600480360381019061025a9190611eb2565b610f38565b005b61027b60048036038101906102769190611e48565b6110a8565b005b610285611243565b60405161029291906120ec565b60405180910390f35b6102a361126c565b6040516102b091906121f9565b60405180910390f35b6102c16113c7565b005b6102cb611535565b6040516102d89190612236565b60405180910390f35b6102e9611548565b005b6102f36116b6565b005b61030f600480360381019061030a9190611e48565b611824565b005b61032b60048036038101906103269190611e48565b611a2f565b005b60011515600160003373ffffffffffffffffffffffffffffffffffffffff1673ffffffffffffffffffffffffffffffffffffffff16815260200190815260200160002060000160009054906101000a900460ff161515146103c3576040517f08c379a00000000000000000000000000000000000000000000000000000000081526004016103ba906121b9565b60405180910390fd5b600360058111156103d057fe5b600360009054906101000a900460ff1660058111156103eb57fe5b146103f557600080fd5b60001515600160003373ffffffffffffffffffffffffffffffffffffffff1673ffffffffffffffffffffffffffffffffffffffff16815260200190815260200160002060000160159054906101000a900460ff1615151461045557600080fd5b60018060003373ffffffffffffffffffffffffffffffffffffffff1673ffffffffffffffffffffffffffffffffffffffff16815260200190815260200160002060000160156101000a81548160ff02191690831515021790555060026000828152602001908152602001600020600201600081548092919060010191905055507f4d99b957a2bc29a30ebd96a7be8e68fe50a3c701db28a91436490b7d53870ca43382604051610506929190612107565b60405180910390a150565b60026020528060005260406000206000915090508060000160009054906101000a900460ff16908060000160019054906101000a900473ffffffffffffffffffffffffffffffffffffffff1690806001018054600181600116156101000203166002900480601f0160208091040260200160405190810160405280929190818152602001828054600181600116156101000203166002900480156105f65780601f106105cb576101008083540402835291602001916105f6565b820191906000526020600020905b8154815290600101906020018083116105d957829003601f168201915b5050505050908060020154905084565b61060e611c7a565b73ffffffffffffffffffffffffffffffffffffffff1660008054906101000a900473ffffffffffffffffffffffffffffffffffffffff1673ffffffffffffffffffffffffffffffffffffffff16146106ce576040517f08c379a00000000000000000000000000000000000000000000000000000000081526004018080602001828103825260208152602001807f4f776e61626c653a2063616c6c6572206973206e6f7420746865206f776e657281525060200191505060405180910390fd5b600460058111156106db57fe5b600360009054906101000a900460ff1660058111156106f657fe5b1461070057600080fd5b60008060005b600060159054906101000a900460ff1660ff16811161078a57600260008281526020019081526020016000206002015482101561077d57600260008281526020019081526020016000206002015491506002600082815260200190815260200160002060000160009054906101000a900460ff1692505b8080600101915050610706565b5081600060146101000a81548160ff021916908360ff1602179055506005600360006101000a81548160ff021916908360058111156107c557fe5b02179055507f7c75ab0a0bf35a72ab671eb9c501a330c5572c09ecdc660fcf5564e5abaf0107600060149054906101000a900460ff166040516108089190612236565b60405180910390a15050565b61081c611c7a565b73ffffffffffffffffffffffffffffffffffffffff1660008054906101000a900473ffffffffffffffffffffffffffffffffffffffff1673ffffffffffffffffffffffffffffffffffffffff16146108dc576040517f08c379a00000000000000000000000000000000000000000000000000000000081526004018080602001828103825260208152602001807f4f776e61626c653a2063616c6c6572206973206e6f7420746865206f776e657281525060200191505060405180910390fd5b6000806001905080600360006101000a81548160ff0219169083600581111561090157fe5b02179055507f344c25562921d075a298d34b6dd1fd00d36ff293974539dfd4a8c625d9f0064c60405160405180910390a17f0a97a4ee45751e2abf3e4fc8946939630b11b371ea8ae39ccdc3056e98f5cc3f8282604051610963929190612190565b60405180910390a15050565b600360009054906101000a900460ff1681565b61098a611c7a565b73ffffffffffffffffffffffffffffffffffffffff1660008054906101000a900473ffffffffffffffffffffffffffffffffffffffff1673ffffffffffffffffffffffffffffffffffffffff1614610a4a576040517f08c379a00000000000000000000000000000000000000000000000000000000081526004018080602001828103825260208152602001807f4f776e61626c653a2063616c6c6572206973206e6f7420746865206f776e657281525060200191505060405180910390fd5b60026000828152602001908152602001600020600080820160006101000a81549060ff02191690556000820160016101000a81549073ffffffffffffffffffffffffffffffffffffffff0219169055600182016000610aa99190611c82565b6002820160009055505050565b60011515600160003373ffffffffffffffffffffffffffffffffffffffff1673ffffffffffffffffffffffffffffffffffffffff16815260200190815260200160002060000160009054906101000a900460ff16151514610b4c576040517f08c379a0000000000000000000000000000000000000000000000000000000008152600401610b43906121b9565b60405180910390fd5b60016005811115610b5957fe5b600360009054906101000a900460ff166005811115610b7457fe5b14610bb4576040517f08c379a0000000000000000000000000000000000000000000000000000000008152600401610bab906121d9565b60405180910390fd5b60006040518060800160405280600060159054906101000a900460ff1660ff1681526020013373ffffffffffffffffffffffffffffffffffffffff1681526020018381526020016000815250905080600260008060159054906101000a900460ff1660ff16815260200190815260200160002060008201518160000160006101000a81548160ff021916908360ff16021790555060208201518160000160016101000a81548173ffffffffffffffffffffffffffffffffffffffff021916908373ffffffffffffffffffffffffffffffffffffffff1602179055506040820151816001019080519060200190610cab929190611cca565b50606082015181600201559050506000601581819054906101000a900460ff168092919060010191906101000a81548160ff021916908360ff160217905550507f92e393e9b54e2f801d3ea4beb0c5e71a21cc34a5d34b77d0fb8a3aa1650dc18f600060159054906101000a900460ff16604051610d29919061221b565b60405180910390a15050565b60016020528060005260406000206000915090508060000160009054906101000a900460ff16908060000160019054906101000a900473ffffffffffffffffffffffffffffffffffffffff16908060000160159054906101000a900460ff16908060010154905084565b600060159054906101000a900460ff1681565b610dba611c7a565b73ffffffffffffffffffffffffffffffffffffffff1660008054906101000a900473ffffffffffffffffffffffffffffffffffffffff1673ffffffffffffffffffffffffffffffffffffffff1614610e7a576040517f08c379a00000000000000000000000000000000000000000000000000000000081526004018080602001828103825260208152602001807f4f776e61626c653a2063616c6c6572206973206e6f7420746865206f776e657281525060200191505060405180910390fd5b600073ffffffffffffffffffffffffffffffffffffffff1660008054906101000a900473ffffffffffffffffffffffffffffffffffffffff1673ffffffffffffffffffffffffffffffffffffffff167f8be0079c531659141344cd1fd0a4f28419497f9722a3daafe3b4186f6b6457e060405160405180910390a360008060006101000a81548173ffffffffffffffffffffffffffffffffffffffff021916908373ffffffffffffffffffffffffffffffffffffffff160217905550565b60011515600160003373ffffffffffffffffffffffffffffffffffffffff1673ffffffffffffffffffffffffffffffffffffffff16815260200190815260200160002060000160009054906101000a900460ff16151514610fce576040517f08c379a0000000000000000000000000000000000000000000000000000000008152600401610fc5906121b9565b60405180910390fd5b3373ffffffffffffffffffffffffffffffffffffffff166002600083815260200190815260200160002060000160019054906101000a900473ffffffffffffffffffffffffffffffffffffffff1673ffffffffffffffffffffffffffffffffffffffff161461103c57600080fd5b60026000828152602001908152602001600020600080820160006101000a81549060ff02191690556000820160016101000a81549073ffffffffffffffffffffffffffffffffffffffff021916905560018201600061109b9190611c82565b6002820160009055505050565b6110b0611c7a565b73ffffffffffffffffffffffffffffffffffffffff1660008054906101000a900473ffffffffffffffffffffffffffffffffffffffff1673ffffffffffffffffffffffffffffffffffffffff1614611170576040517f08c379a00000000000000000000000000000000000000000000000000000000081526004018080602001828103825260208152602001807f4f776e61626c653a2063616c6c6572206973206e6f7420746865206f776e657281525060200191505060405180910390fd5b600160008273ffffffffffffffffffffffffffffffffffffffff1673ffffffffffffffffffffffffffffffffffffffff168152602001908152602001600020600080820160006101000a81549060ff02191690556000820160016101000a81549073ffffffffffffffffffffffffffffffffffffffff02191690556000820160156101000a81549060ff0219169055600182016000905550507fa14a79af012d1756818f9bd59ccfc9ad185a71df86b9392d9059d9e6faf6d6448160405161123891906120ec565b60405180910390a150565b60008060009054906101000a900473ffffffffffffffffffffffffffffffffffffffff16905090565b611274611d58565b600260008060149054906101000a900460ff1660ff1681526020019081526020016000206040518060800160405290816000820160009054906101000a900460ff1660ff1660ff1681526020016000820160019054906101000a900473ffffffffffffffffffffffffffffffffffffffff1673ffffffffffffffffffffffffffffffffffffffff1673ffffffffffffffffffffffffffffffffffffffff168152602001600182018054600181600116156101000203166002900480601f0160208091040260200160405190810160405280929190818152602001828054600181600116156101000203166002900480156113af5780601f10611384576101008083540402835291602001916113af565b820191906000526020600020905b81548152906001019060200180831161139257829003601f168201915b50505050508152602001600282015481525050905090565b6113cf611c7a565b73ffffffffffffffffffffffffffffffffffffffff1660008054906101000a900473ffffffffffffffffffffffffffffffffffffffff1673ffffffffffffffffffffffffffffffffffffffff161461148f576040517f08c379a00000000000000000000000000000000000000000000000000000000081526004018080602001828103825260208152602001807f4f776e61626c653a2063616c6c6572206973206e6f7420746865206f776e657281525060200191505060405180910390fd5b6000600360009054906101000a900460ff16905060006004905080600360006101000a81548160ff021916908360058111156114c757fe5b02179055507fc379d349a6301baf50fb2f98d829f4ae10b1cdb7c66f4e4d8117302df7b8cd4c60405160405180910390a17f0a97a4ee45751e2abf3e4fc8946939630b11b371ea8ae39ccdc3056e98f5cc3f8282604051611529929190612190565b60405180910390a15050565b600060149054906101000a900460ff1681565b611550611c7a565b73ffffffffffffffffffffffffffffffffffffffff1660008054906101000a900473ffffffffffffffffffffffffffffffffffffffff1673ffffffffffffffffffffffffffffffffffffffff1614611610576040517f08c379a00000000000000000000000000000000000000000000000000000000081526004018080602001828103825260208152602001807f4f776e61626c653a2063616c6c6572206973206e6f7420746865206f776e657281525060200191505060405180910390fd5b6000600360009054906101000a900460ff16905060006002905080600360006101000a81548160ff0219169083600581111561164857fe5b02179055507f240cb87b2e4df4c318e72bd714d45a9cad60249e883ff56b1fffd83a4595a8fa60405160405180910390a17f0a97a4ee45751e2abf3e4fc8946939630b11b371ea8ae39ccdc3056e98f5cc3f82826040516116aa929190612190565b60405180910390a15050565b6116be611c7a565b73ffffffffffffffffffffffffffffffffffffffff1660008054906101000a900473ffffffffffffffffffffffffffffffffffffffff1673ffffffffffffffffffffffffffffffffffffffff161461177e576040517f08c379a00000000000000000000000000000000000000000000000000000000081526004018080602001828103825260208152602001807f4f776e61626c653a2063616c6c6572206973206e6f7420746865206f776e657281525060200191505060405180910390fd5b6000600360009054906101000a900460ff16905060006003905080600360006101000a81548160ff021916908360058111156117b657fe5b02179055507f1b8e19a458c1bcd88553332c518cc5c4e2d5793e712ee766d4f1c14f672ef1f560405160405180910390a17f0a97a4ee45751e2abf3e4fc8946939630b11b371ea8ae39ccdc3056e98f5cc3f8282604051611818929190612190565b60405180910390a15050565b61182c611c7a565b73ffffffffffffffffffffffffffffffffffffffff1660008054906101000a900473ffffffffffffffffffffffffffffffffffffffff1673ffffffffffffffffffffffffffffffffffffffff16146118ec576040517f08c379a00000000000000000000000000000000000000000000000000000000081526004018080602001828103825260208152602001807f4f776e61626c653a2063616c6c6572206973206e6f7420746865206f776e657281525060200191505060405180910390fd5b600073ffffffffffffffffffffffffffffffffffffffff168173ffffffffffffffffffffffffffffffffffffffff161415611972576040517f08c379a00000000000000000000000000000000000000000000000000000000081526004018080602001828103825260268152602001806124856026913960400191505060405180910390fd5b8073ffffffffffffffffffffffffffffffffffffffff1660008054906101000a900473ffffffffffffffffffffffffffffffffffffffff1673ffffffffffffffffffffffffffffffffffffffff167f8be0079c531659141344cd1fd0a4f28419497f9722a3daafe3b4186f6b6457e060405160405180910390a3806000806101000a81548173ffffffffffffffffffffffffffffffffffffffff021916908373ffffffffffffffffffffffffffffffffffffffff16021790555050565b611a37611c7a565b73ffffffffffffffffffffffffffffffffffffffff1660008054906101000a900473ffffffffffffffffffffffffffffffffffffffff1673ffffffffffffffffffffffffffffffffffffffff1614611af7576040517f08c379a00000000000000000000000000000000000000000000000000000000081526004018080602001828103825260208152602001807f4f776e61626c653a2063616c6c6572206973206e6f7420746865206f776e657281525060200191505060405180910390fd5b60006005811115611b0457fe5b600360009054906101000a900460ff166005811115611b1f57fe5b14611b2957600080fd5b600060405180608001604052806001151581526020018373ffffffffffffffffffffffffffffffffffffffff1681526020016000151581526020016000815250905080600160008473ffffffffffffffffffffffffffffffffffffffff1673ffffffffffffffffffffffffffffffffffffffff16815260200190815260200160002060008201518160000160006101000a81548160ff02191690831515021790555060208201518160000160016101000a81548173ffffffffffffffffffffffffffffffffffffffff021916908373ffffffffffffffffffffffffffffffffffffffff16021790555060408201518160000160156101000a81548160ff021916908315150217905550606082015181600101559050507fb6be2187d059cc2a55fe29e0e503b566e1e0f8c8780096e185429350acffd3dd82604051611c6e91906120ec565b60405180910390a15050565b600033905090565b50805460018160011615610100020316600290046000825580601f10611ca85750611cc7565b601f016020900490600052602060002090810190611cc69190611d99565b5b50565b828054600181600116156101000203166002900490600052602060002090601f016020900481019282611d005760008555611d47565b82601f10611d1957805160ff1916838001178555611d47565b82800160010185558215611d47579182015b82811115611d46578251825591602001919060010190611d2b565b5b509050611d549190611d99565b5090565b6040518060800160405280600060ff168152602001600073ffffffffffffffffffffffffffffffffffffffff16815260200160608152602001600081525090565b5b80821115611db2576000816000905550600101611d9a565b5090565b6000611dc9611dc4846122ce565b61229d565b905082815260208101848484011115611de157600080fd5b611dec8482856123ed565b509392505050565b600081359050611e0381612456565b92915050565b600082601f830112611e1a57600080fd5b8135611e2a848260208601611db6565b91505092915050565b600081359050611e428161246d565b92915050565b600060208284031215611e5a57600080fd5b6000611e6884828501611df4565b91505092915050565b600060208284031215611e8357600080fd5b600082013567ffffffffffffffff811115611e9d57600080fd5b611ea984828501611e09565b91505092915050565b600060208284031215611ec457600080fd5b6000611ed284828501611e33565b91505092915050565b611ee481612393565b82525050565b611ef38161232b565b82525050565b611f028161232b565b82525050565b611f118161233d565b82525050565b611f20816123a5565b82525050565b6000611f31826122fe565b611f3b8185612309565b9350611f4b8185602086016123fc565b611f5481612431565b840191505092915050565b6000611f6a826122fe565b611f74818561231a565b9350611f848185602086016123fc565b611f8d81612431565b840191505092915050565b6000611fa560158361231a565b91507f766f746572206e6f742077686974656c697374656400000000000000000000006000830152602082019050919050565b6000611fe560218361231a565b91507f50726f706f73616c732073657373696f6e20686173206e6f742073746172746560008301527f64000000000000000000000000000000000000000000000000000000000000006020830152604082019050919050565b600060808301600083015161205660008601826120ce565b5060208301516120696020860182611eea565b50604083015184820360408601526120818282611f26565b915050606083015161209660608601826120a1565b508091505092915050565b6120aa8161237c565b82525050565b6120b98161237c565b82525050565b6120c8816123db565b82525050565b6120d781612386565b82525050565b6120e681612386565b82525050565b60006020820190506121016000830184611ef9565b92915050565b600060408201905061211c6000830185611edb565b61212960208301846120b0565b9392505050565b60006080820190506121456000830187611f08565b6121526020830186611ef9565b61215f6040830185611f08565b61216c60608301846120b0565b95945050505050565b600060208201905061218a6000830184611f17565b92915050565b60006040820190506121a56000830185611f17565b6121b26020830184611f17565b9392505050565b600060208201905081810360008301526121d281611f98565b9050919050565b600060208201905081810360008301526121f281611fd8565b9050919050565b60006020820190508181036000830152612213818461203e565b905092915050565b600060208201905061223060008301846120bf565b92915050565b600060208201905061224b60008301846120dd565b92915050565b600060808201905061226660008301876120dd565b6122736020830186611ef9565b81810360408301526122858185611f5f565b905061229460608301846120b0565b95945050505050565b6000604051905081810181811067ffffffffffffffff821117156122c4576122c361242f565b5b8060405250919050565b600067ffffffffffffffff8211156122e9576122e861242f565b5b601f19601f8301169050602081019050919050565b600081519050919050565b600082825260208201905092915050565b600082825260208201905092915050565b60006123368261235c565b9050919050565b60008115159050919050565b600081905061235782612442565b919050565b600073ffffffffffffffffffffffffffffffffffffffff82169050919050565b6000819050919050565b600060ff82169050919050565b600061239e826123b7565b9050919050565b60006123b082612349565b9050919050565b60006123c2826123c9565b9050919050565b60006123d48261235c565b9050919050565b60006123e682612386565b9050919050565b82818337600083830152505050565b60005b8381101561241a5780820151818401526020810190506123ff565b83811115612429576000848401525b50505050565bfe5b6000601f19601f8301169050919050565b600681106124535761245261242f565b5b50565b61245f8161232b565b811461246a57600080fd5b50565b6124768161237c565b811461248157600080fd5b5056fe4f776e61626c653a206e6577206f776e657220697320746865207a65726f2061646472657373a26469706673582212207b13c6f08bbddc0e531b3742ea187ff4b173e4fdd45741ba3fea42cd0016349664736f6c63430007060033",
  "immutableReferences": {},
  "source": "///SPDX-License-Identifier: GPL-3.0\r\npragma solidity ^0.7.4;\r\npragma experimental ABIEncoderV2;\r\n\r\n/* import contrat ownable*/\r\nimport \"./Ownable.sol\";\r\n\r\n/**\r\n * @title Voting\r\n   @author Sandy,Julien,Stphane\r\n   @notice Contrat de vote, getsion par un superadmin\r\n */\r\n\r\ncontract Voting is Ownable {\r\n    uint8 public winningProposalId;\r\n\r\n    //increment d'ids\r\n    uint8 public proposalIds;\r\n\r\n    struct Voter {\r\n        bool isRegistered;\r\n        address _address;\r\n        bool hasVoted;\r\n        // voir l'utilit :\r\n        uint256 votedProposalId;\r\n    }\r\n\r\n    struct Proposal {\r\n        uint8 id;\r\n        address owner;\r\n        string description;\r\n        uint256 voteCount;\r\n    }\r\n\r\n    mapping(address => Voter) public whiteList;\r\n\r\n    mapping(uint256 => Proposal) public proposals;\r\n\r\n    enum WorkflowStatus {\r\n        RegisteringVoters,\r\n        ProposalsRegistrationStarted,\r\n        ProposalsRegistrationEnded,\r\n        VotingSessionStarted,\r\n        VotingSessionEnded,\r\n        VotesTallied\r\n    }\r\n\r\n    WorkflowStatus public status;\r\n\r\n    ///@notice Events\r\n    event NewVotingSystem();\r\n    event VoterRegistered(address voterAddress);\r\n    event VoterRemoved(address voterAddress);\r\n    event ProposalsRegistrationStarted();\r\n    event ProposalsRegistrationEnded();\r\n    event ProposalRegistered(uint256 proposalId);\r\n    event VotingSessionStarted();\r\n    event VotingSessionEnded();\r\n    event Voted(address voter, uint256 proposalId);\r\n    event VotesTallied(uint8 _winningProposals);\r\n    event WorkflowStatusChange(\r\n        WorkflowStatus previousStatus,\r\n        WorkflowStatus newStatus\r\n    );\r\n\r\n    constructor() {\r\n        emit NewVotingSystem();\r\n    }\r\n\r\n    function getWinningProposal() public view returns (Proposal memory proposal){\r\n      //a voir en cas de plusieurs gagnnats boucle ->\r\n        return proposals[winningProposalId];\r\n    }\r\n\r\n    ///@param _address  ajouter  la whitelist\r\n    function addVoter(address _address) public onlyOwner {\r\n        require(status == WorkflowStatus.RegisteringVoters);\r\n        Voter memory newVoter = Voter(true, _address, false, 0);\r\n        whiteList[_address] = newVoter;\r\n        emit VoterRegistered(_address);\r\n    }\r\n\r\n    function deleteVoter(address _address) public onlyOwner {\r\n        delete whiteList[_address];\r\n         emit VoterRemoved(_address);\r\n    }\r\n\r\n    function startProposalRegistration() public onlyOwner   {\r\n        WorkflowStatus previous = WorkflowStatus.RegisteringVoters;\r\n        WorkflowStatus newStatus = WorkflowStatus.ProposalsRegistrationStarted;\r\n        status = newStatus;\r\n        emit ProposalsRegistrationStarted();\r\n        emit WorkflowStatusChange(previous, newStatus);\r\n    }\r\n\r\n    function endProposalRegistration() public onlyOwner {\r\n        WorkflowStatus previous = status;\r\n        WorkflowStatus newStatus = WorkflowStatus.ProposalsRegistrationEnded;\r\n        status = newStatus;\r\n        emit ProposalsRegistrationEnded();\r\n        emit WorkflowStatusChange(previous, newStatus);\r\n    }\r\n\r\n    function startVotingSession() public onlyOwner {\r\n        WorkflowStatus previous = status;\r\n        WorkflowStatus newStatus = WorkflowStatus.VotingSessionStarted;\r\n        status = newStatus;\r\n        emit VotingSessionStarted();\r\n        emit WorkflowStatusChange(previous, newStatus);\r\n    }\r\n\r\n    function endVotingSession() public onlyOwner {\r\n        WorkflowStatus previous = status;\r\n        WorkflowStatus newStatus = WorkflowStatus.VotingSessionEnded;\r\n        status = newStatus;\r\n        emit VotingSessionEnded();\r\n        emit WorkflowStatusChange(previous, newStatus);\r\n    }\r\n\r\n    ///@dev Verification de la prsence de l'address dans la whitelist\r\n    modifier whiteListed() {\r\n        require(whiteList[msg.sender].isRegistered == true, \"voter not whitelisted\");\r\n        _;\r\n    }\r\n\r\n    ///@param _description est le nom de la proposition\r\n    function addProposal(string memory _description) public whiteListed {\r\n        //obligation d'tre dans le workflow correspondant\r\n        //deux propositions identiques sont possibles  voir...\r\n        require(status == WorkflowStatus.ProposalsRegistrationStarted, \"Proposals session has not started\");\r\n        Proposal memory newProposal =\r\n        Proposal(proposalIds, msg.sender, _description, 0);\r\n        proposals[proposalIds] = newProposal;\r\n        proposalIds++;\r\n        emit ProposalRegistered(proposalIds);\r\n    }\r\n\r\n    function deleteProposal(uint256 _id) public whiteListed {\r\n        require(proposals[_id].owner == msg.sender);\r\n        delete proposals[_id];\r\n    }\r\n    //a voir si on fait function delete proposal aussi pour l'admin\r\n    function deleteProposalAdmin(uint256 _id) public onlyOwner {\r\n        delete proposals[_id];\r\n    }\r\n\r\n    function vote(uint256 _id) public whiteListed {\r\n        require(status == WorkflowStatus.VotingSessionStarted);\r\n        require(whiteList[msg.sender].hasVoted == false);\r\n        whiteList[msg.sender].hasVoted = true;\r\n        proposals[_id].voteCount++;\r\n        emit Voted(msg.sender, _id);\r\n    }\r\n\r\n    function count() public onlyOwner {\r\n        require(status == WorkflowStatus.VotingSessionEnded);\r\n        uint8 id;\r\n        uint256 highestCount;\r\n        for (uint256 i = 0; i <= proposalIds; i++) {\r\n            if (highestCount < proposals[i].voteCount) {\r\n                highestCount = proposals[i].voteCount;\r\n                id = proposals[i].id;\r\n            }\r\n\r\n        }\r\n        winningProposalId = id;\r\n        status = WorkflowStatus.VotesTallied;\r\n        emit VotesTallied(winningProposalId);   \r\n    }\r\n\r\n}\r\n",
  "sourcePath": "/Users/sandyinstructor/Documents/BLOCKCHAIN/Alyra/templates/truffle-voting-syst/contracts/Voting.sol",
  "compiler": {
    "name": "solc",
    "version": "0.7.6+commit.7338295f.Emscripten.clang"
  },
  "schemaVersion": "3.3.4",
  "updatedAt": "2021-03-12T13:31:36.074Z",
  "networkType": "ethereum",
  "devdoc": {
    "author": "Sandy,Julien,Stphane",
    "kind": "dev",
    "methods": {
      "addProposal(string)": {
        "params": {
          "_description": "est le nom de la proposition"
        }
      },
      "addVoter(address)": {
        "params": {
          "_address": " ajouter  la whitelist"
        }
      },
      "owner()": {
        "details": "Returns the address of the current owner."
      },
      "renounceOwnership()": {
        "details": "Leaves the contract without owner. It will not be possible to call `onlyOwner` functions anymore. Can only be called by the current owner. NOTE: Renouncing ownership will leave the contract without an owner, thereby removing any functionality that is only available to the owner."
      },
      "transferOwnership(address)": {
        "details": "Transfers ownership of the contract to a new account (`newOwner`). Can only be called by the current owner."
      }
    },
    "title": "Voting",
    "version": 1
  },
  "userdoc": {
    "events": {
      "NewVotingSystem()": {
        "notice": "Events"
      }
    },
    "kind": "user",
    "methods": {},
    "notice": "Contrat de vote, getsion par un superadmin",
    "version": 1
  }
}