{
  "contractName": "Voting",
  "abi": [
    {
      "inputs": [],
      "stateMutability": "nonpayable",
      "type": "constructor"
    },
    {
      "anonymous": false,
      "inputs": [],
      "name": "NewVotingSystem",
      "type": "event"
    },
    {
      "anonymous": false,
      "inputs": [
        {
          "indexed": true,
          "internalType": "address",
          "name": "previousOwner",
          "type": "address"
        },
        {
          "indexed": true,
          "internalType": "address",
          "name": "newOwner",
          "type": "address"
        }
      ],
      "name": "OwnershipTransferred",
      "type": "event"
    },
    {
      "anonymous": false,
      "inputs": [
        {
          "indexed": false,
          "internalType": "uint256",
          "name": "proposalId",
          "type": "uint256"
        }
      ],
      "name": "ProposalRegistered",
      "type": "event"
    },
    {
      "anonymous": false,
      "inputs": [
        {
          "indexed": false,
          "internalType": "uint256",
          "name": "proposalId",
          "type": "uint256"
        }
      ],
      "name": "ProposalRemoved",
      "type": "event"
    },
    {
      "anonymous": false,
      "inputs": [],
      "name": "ProposalsRegistrationEnded",
      "type": "event"
    },
    {
      "anonymous": false,
      "inputs": [],
      "name": "ProposalsRegistrationStarted",
      "type": "event"
    },
    {
      "anonymous": false,
      "inputs": [
        {
          "indexed": false,
          "internalType": "address",
          "name": "voter",
          "type": "address"
        },
        {
          "indexed": false,
          "internalType": "uint256",
          "name": "proposalId",
          "type": "uint256"
        }
      ],
      "name": "Voted",
      "type": "event"
    },
    {
      "anonymous": false,
      "inputs": [
        {
          "indexed": false,
          "internalType": "address",
          "name": "voterAddress",
          "type": "address"
        }
      ],
      "name": "VoterRegistered",
      "type": "event"
    },
    {
      "anonymous": false,
      "inputs": [
        {
          "indexed": false,
          "internalType": "address",
          "name": "_address",
          "type": "address"
        }
      ],
      "name": "VoterRemoved",
      "type": "event"
    },
    {
      "anonymous": false,
      "inputs": [
        {
          "indexed": false,
          "internalType": "uint8",
          "name": "_winningProposals",
          "type": "uint8"
        }
      ],
      "name": "VotesTallied",
      "type": "event"
    },
    {
      "anonymous": false,
      "inputs": [],
      "name": "VotingSessionEnded",
      "type": "event"
    },
    {
      "anonymous": false,
      "inputs": [],
      "name": "VotingSessionStarted",
      "type": "event"
    },
    {
      "anonymous": false,
      "inputs": [
        {
          "indexed": false,
          "internalType": "enum Voting.WorkflowStatus",
          "name": "previousStatus",
          "type": "uint8"
        },
        {
          "indexed": false,
          "internalType": "enum Voting.WorkflowStatus",
          "name": "newStatus",
          "type": "uint8"
        }
      ],
      "name": "WorkflowStatusChange",
      "type": "event"
    },
    {
      "inputs": [],
      "name": "owner",
      "outputs": [
        {
          "internalType": "address",
          "name": "",
          "type": "address"
        }
      ],
      "stateMutability": "view",
      "type": "function",
      "constant": true
    },
    {
      "inputs": [],
      "name": "proposalIds",
      "outputs": [
        {
          "internalType": "uint8",
          "name": "",
          "type": "uint8"
        }
      ],
      "stateMutability": "view",
      "type": "function",
      "constant": true
    },
    {
      "inputs": [
        {
          "internalType": "uint256",
          "name": "",
          "type": "uint256"
        }
      ],
      "name": "proposals",
      "outputs": [
        {
          "internalType": "uint8",
          "name": "id",
          "type": "uint8"
        },
        {
          "internalType": "address",
          "name": "owner",
          "type": "address"
        },
        {
          "internalType": "string",
          "name": "description",
          "type": "string"
        },
        {
          "internalType": "uint256",
          "name": "voteCount",
          "type": "uint256"
        }
      ],
      "stateMutability": "view",
      "type": "function",
      "constant": true
    },
    {
      "inputs": [],
      "name": "renounceOwnership",
      "outputs": [],
      "stateMutability": "nonpayable",
      "type": "function"
    },
    {
      "inputs": [],
      "name": "status",
      "outputs": [
        {
          "internalType": "enum Voting.WorkflowStatus",
          "name": "",
          "type": "uint8"
        }
      ],
      "stateMutability": "view",
      "type": "function",
      "constant": true
    },
    {
      "inputs": [
        {
          "internalType": "address",
          "name": "newOwner",
          "type": "address"
        }
      ],
      "name": "transferOwnership",
      "outputs": [],
      "stateMutability": "nonpayable",
      "type": "function"
    },
    {
      "inputs": [],
      "name": "votersCount",
      "outputs": [
        {
          "internalType": "uint8",
          "name": "",
          "type": "uint8"
        }
      ],
      "stateMutability": "view",
      "type": "function",
      "constant": true
    },
    {
      "inputs": [
        {
          "internalType": "address",
          "name": "",
          "type": "address"
        }
      ],
      "name": "whiteList",
      "outputs": [
        {
          "internalType": "bool",
          "name": "isRegistered",
          "type": "bool"
        },
        {
          "internalType": "address",
          "name": "_address",
          "type": "address"
        },
        {
          "internalType": "bool",
          "name": "hasVoted",
          "type": "bool"
        },
        {
          "internalType": "uint256",
          "name": "votedProposalId",
          "type": "uint256"
        }
      ],
      "stateMutability": "view",
      "type": "function",
      "constant": true
    },
    {
      "inputs": [],
      "name": "winningProposalId",
      "outputs": [
        {
          "internalType": "uint8",
          "name": "",
          "type": "uint8"
        }
      ],
      "stateMutability": "view",
      "type": "function",
      "constant": true
    },
    {
      "inputs": [],
      "name": "getVoters",
      "outputs": [
        {
          "internalType": "address[]",
          "name": "",
          "type": "address[]"
        }
      ],
      "stateMutability": "view",
      "type": "function",
      "constant": true
    },
    {
      "inputs": [],
      "name": "getWinningProposal",
      "outputs": [
        {
          "components": [
            {
              "internalType": "uint8",
              "name": "id",
              "type": "uint8"
            },
            {
              "internalType": "address",
              "name": "owner",
              "type": "address"
            },
            {
              "internalType": "string",
              "name": "description",
              "type": "string"
            },
            {
              "internalType": "uint256",
              "name": "voteCount",
              "type": "uint256"
            }
          ],
          "internalType": "struct Voting.Proposal",
          "name": "proposal",
          "type": "tuple"
        }
      ],
      "stateMutability": "view",
      "type": "function",
      "constant": true
    },
    {
      "inputs": [
        {
          "internalType": "address",
          "name": "_address",
          "type": "address"
        }
      ],
      "name": "addVoter",
      "outputs": [],
      "stateMutability": "nonpayable",
      "type": "function"
    },
    {
      "inputs": [
        {
          "internalType": "address",
          "name": "_address",
          "type": "address"
        }
      ],
      "name": "deleteVoter",
      "outputs": [],
      "stateMutability": "nonpayable",
      "type": "function"
    },
    {
      "inputs": [],
      "name": "resetVotingSession",
      "outputs": [],
      "stateMutability": "nonpayable",
      "type": "function"
    },
    {
      "inputs": [],
      "name": "startProposalRegistration",
      "outputs": [],
      "stateMutability": "nonpayable",
      "type": "function"
    },
    {
      "inputs": [],
      "name": "endProposalRegistration",
      "outputs": [],
      "stateMutability": "nonpayable",
      "type": "function"
    },
    {
      "inputs": [],
      "name": "startVotingSession",
      "outputs": [],
      "stateMutability": "nonpayable",
      "type": "function"
    },
    {
      "inputs": [],
      "name": "endVotingSession",
      "outputs": [],
      "stateMutability": "nonpayable",
      "type": "function"
    },
    {
      "inputs": [
        {
          "internalType": "string",
          "name": "_description",
          "type": "string"
        }
      ],
      "name": "addProposal",
      "outputs": [],
      "stateMutability": "nonpayable",
      "type": "function"
    },
    {
      "inputs": [
        {
          "internalType": "uint256",
          "name": "_id",
          "type": "uint256"
        }
      ],
      "name": "deleteProposal",
      "outputs": [],
      "stateMutability": "nonpayable",
      "type": "function"
    },
    {
      "inputs": [
        {
          "internalType": "uint256",
          "name": "_id",
          "type": "uint256"
        }
      ],
      "name": "deleteProposalAdmin",
      "outputs": [],
      "stateMutability": "nonpayable",
      "type": "function"
    },
    {
      "inputs": [
        {
          "internalType": "uint256",
          "name": "_id",
          "type": "uint256"
        }
      ],
      "name": "vote",
      "outputs": [],
      "stateMutability": "nonpayable",
      "type": "function"
    }
  ],
  "bytecode": "0x608060405234801561001057600080fd5b5060006100216100f060201b60201c565b9050806000806101000a81548173ffffffffffffffffffffffffffffffffffffffff021916908373ffffffffffffffffffffffffffffffffffffffff1602179055508073ffffffffffffffffffffffffffffffffffffffff16600073ffffffffffffffffffffffffffffffffffffffff167f8be0079c531659141344cd1fd0a4f28419497f9722a3daafe3b4186f6b6457e060405160405180910390a3507f28c5e727295d809da653948416bdc4fe30913878a5f1332ded39bc4730d10c5660405160405180910390a16100f8565b600033905090565b61272e806101076000396000f3fe608060405234801561001057600080fd5b50600436106101425760003560e01c806388e1c739116100b8578063c64963c51161007c578063c64963c5146102f7578063cdd7225314610315578063e85a8f2a14610333578063ee74c6781461033d578063f2fde38b14610347578063f4ab9adf1461036357610142565b806388e1c739146102775780638da5cb5b1461029357806398c07938146102b1578063a5134620146102cf578063a7bfab16146102ed57610142565b80632fdae3c51161010a5780632fdae3c5146101da578063372c12b1146101f65780633d5af2ed1461022957806348d82c6614610247578063715018a6146102515780638259d5531461025b57610142565b80630121b93f14610147578063013cf08b146101635780630f7e283814610196578063200d2ed2146101a05780632d5de3c9146101be575b600080fd5b610161600480360381019061015c9190612014565b61037f565b005b61017d60048036038101906101789190612014565b610564565b60405161018d9493929190612466565b60405180910390f35b61019e610659565b005b6101a86107c7565b6040516101b5919061236f565b60405180910390f35b6101d860048036038101906101d39190612014565b6107da565b005b6101f460048036038101906101ef9190611fd3565b61090e565b005b610210600480360381019061020b9190611faa565b610b8d565b604051610220949392919061232a565b60405180910390f35b610231610bf7565b60405161023e919061244b565b60405180910390f35b61024f610c0a565b005b610259610d74565b005b61027560048036038101906102709190612014565b610efa565b005b610291600480360381019061028c9190611faa565b6110a1565b005b61029b61126f565b6040516102a891906122c4565b60405180910390f35b6102b9611298565b6040516102c6919061244b565b60405180910390f35b6102d76112ab565b6040516102e491906123f3565b60405180910390f35b6102f5611406565b005b6102ff611574565b60405161030c919061244b565b60405180910390f35b61031d611587565b60405161032a9190612308565b60405180910390f35b61033b611615565b005b610345611783565b005b610361600480360381019061035c9190611faa565b6118f1565b005b61037d60048036038101906103789190611faa565b611afc565b005b60011515600260003373ffffffffffffffffffffffffffffffffffffffff1673ffffffffffffffffffffffffffffffffffffffff16815260200190815260200160002060000160009054906101000a900460ff16151514610415576040517f08c379a000000000000000000000000000000000000000000000000000000000815260040161040c906123b3565b60405180910390fd5b6003600581111561042257fe5b600460009054906101000a900460ff16600581111561043d57fe5b1461044757600080fd5b60001515600260003373ffffffffffffffffffffffffffffffffffffffff1673ffffffffffffffffffffffffffffffffffffffff16815260200190815260200160002060000160159054906101000a900460ff161515146104a757600080fd5b6001600260003373ffffffffffffffffffffffffffffffffffffffff1673ffffffffffffffffffffffffffffffffffffffff16815260200190815260200160002060000160156101000a81548160ff02191690831515021790555060036000828152602001908152602001600020600201600081548092919060010191905055507f4d99b957a2bc29a30ebd96a7be8e68fe50a3c701db28a91436490b7d53870ca433826040516105599291906122df565b60405180910390a150565b60036020528060005260406000206000915090508060000160009054906101000a900460ff16908060000160019054906101000a900473ffffffffffffffffffffffffffffffffffffffff1690806001018054600181600116156101000203166002900480601f0160208091040260200160405190810160405280929190818152602001828054600181600116156101000203166002900480156106495780601f1061061e57610100808354040283529160200191610649565b820191906000526020600020905b81548152906001019060200180831161062c57829003601f168201915b5050505050908060020154905084565b610661611ddc565b73ffffffffffffffffffffffffffffffffffffffff1660008054906101000a900473ffffffffffffffffffffffffffffffffffffffff1673ffffffffffffffffffffffffffffffffffffffff1614610721576040517f08c379a00000000000000000000000000000000000000000000000000000000081526004018080602001828103825260208152602001807f4f776e61626c653a2063616c6c6572206973206e6f7420746865206f776e657281525060200191505060405180910390fd5b6000600460009054906101000a900460ff16905060006001905080600460006101000a81548160ff0219169083600581111561075957fe5b02179055507f344c25562921d075a298d34b6dd1fd00d36ff293974539dfd4a8c625d9f0064c60405160405180910390a17f0a97a4ee45751e2abf3e4fc8946939630b11b371ea8ae39ccdc3056e98f5cc3f82826040516107bb92919061238a565b60405180910390a15050565b600460009054906101000a900460ff1681565b6107e2611ddc565b73ffffffffffffffffffffffffffffffffffffffff1660008054906101000a900473ffffffffffffffffffffffffffffffffffffffff1673ffffffffffffffffffffffffffffffffffffffff16146108a2576040517f08c379a00000000000000000000000000000000000000000000000000000000081526004018080602001828103825260208152602001807f4f776e61626c653a2063616c6c6572206973206e6f7420746865206f776e657281525060200191505060405180910390fd5b60036000828152602001908152602001600020600080820160006101000a81549060ff02191690556000820160016101000a81549073ffffffffffffffffffffffffffffffffffffffff02191690556001820160006109019190611de4565b6002820160009055505050565b60011515600260003373ffffffffffffffffffffffffffffffffffffffff1673ffffffffffffffffffffffffffffffffffffffff16815260200190815260200160002060000160009054906101000a900460ff161515146109a4576040517f08c379a000000000000000000000000000000000000000000000000000000000815260040161099b906123b3565b60405180910390fd5b600160058111156109b157fe5b600460009054906101000a900460ff1660058111156109cc57fe5b14610a0c576040517f08c379a0000000000000000000000000000000000000000000000000000000008152600401610a03906123d3565b60405180910390fd5b60006040518060800160405280600060159054906101000a900460ff1660ff1681526020013373ffffffffffffffffffffffffffffffffffffffff1681526020018381526020016000815250905080600360008060159054906101000a900460ff1660ff16815260200190815260200160002060008201518160000160006101000a81548160ff021916908360ff16021790555060208201518160000160016101000a81548173ffffffffffffffffffffffffffffffffffffffff021916908373ffffffffffffffffffffffffffffffffffffffff1602179055506040820151816001019080519060200190610b03929190611e2c565b50606082015181600201559050506000601581819054906101000a900460ff168092919060010191906101000a81548160ff021916908360ff160217905550507f92e393e9b54e2f801d3ea4beb0c5e71a21cc34a5d34b77d0fb8a3aa1650dc18f600060159054906101000a900460ff16604051610b819190612430565b60405180910390a15050565b60026020528060005260406000206000915090508060000160009054906101000a900460ff16908060000160019054906101000a900473ffffffffffffffffffffffffffffffffffffffff16908060000160159054906101000a900460ff16908060010154905084565b600060159054906101000a900460ff1681565b610c12611ddc565b73ffffffffffffffffffffffffffffffffffffffff1660008054906101000a900473ffffffffffffffffffffffffffffffffffffffff1673ffffffffffffffffffffffffffffffffffffffff1614610cd2576040517f08c379a00000000000000000000000000000000000000000000000000000000081526004018080602001828103825260208152602001807f4f776e61626c653a2063616c6c6572206973206e6f7420746865206f776e657281525060200191505060405180910390fd5b6000600460009054906101000a900460ff169050600080600460006101000a81548160ff02191690836005811115610d0657fe5b02179055507f28c5e727295d809da653948416bdc4fe30913878a5f1332ded39bc4730d10c5660405160405180910390a17f0a97a4ee45751e2abf3e4fc8946939630b11b371ea8ae39ccdc3056e98f5cc3f8282604051610d6892919061238a565b60405180910390a15050565b610d7c611ddc565b73ffffffffffffffffffffffffffffffffffffffff1660008054906101000a900473ffffffffffffffffffffffffffffffffffffffff1673ffffffffffffffffffffffffffffffffffffffff1614610e3c576040517f08c379a00000000000000000000000000000000000000000000000000000000081526004018080602001828103825260208152602001807f4f776e61626c653a2063616c6c6572206973206e6f7420746865206f776e657281525060200191505060405180910390fd5b600073ffffffffffffffffffffffffffffffffffffffff1660008054906101000a900473ffffffffffffffffffffffffffffffffffffffff1673ffffffffffffffffffffffffffffffffffffffff167f8be0079c531659141344cd1fd0a4f28419497f9722a3daafe3b4186f6b6457e060405160405180910390a360008060006101000a81548173ffffffffffffffffffffffffffffffffffffffff021916908373ffffffffffffffffffffffffffffffffffffffff160217905550565b60011515600260003373ffffffffffffffffffffffffffffffffffffffff1673ffffffffffffffffffffffffffffffffffffffff16815260200190815260200160002060000160009054906101000a900460ff16151514610f90576040517f08c379a0000000000000000000000000000000000000000000000000000000008152600401610f87906123b3565b60405180910390fd5b3373ffffffffffffffffffffffffffffffffffffffff166003600083815260200190815260200160002060000160019054906101000a900473ffffffffffffffffffffffffffffffffffffffff1673ffffffffffffffffffffffffffffffffffffffff1614610ffe57600080fd5b60036000828152602001908152602001600020600080820160006101000a81549060ff02191690556000820160016101000a81549073ffffffffffffffffffffffffffffffffffffffff021916905560018201600061105d9190611de4565b600282016000905550507fd412ca680e6dcd7bc731a6c8d9ad74bea65b8d0dd85d47d29377d99c53326cf7816040516110969190612415565b60405180910390a150565b6110a9611ddc565b73ffffffffffffffffffffffffffffffffffffffff1660008054906101000a900473ffffffffffffffffffffffffffffffffffffffff1673ffffffffffffffffffffffffffffffffffffffff1614611169576040517f08c379a00000000000000000000000000000000000000000000000000000000081526004018080602001828103825260208152602001807f4f776e61626c653a2063616c6c6572206973206e6f7420746865206f776e657281525060200191505060405180910390fd5b600260008273ffffffffffffffffffffffffffffffffffffffff1673ffffffffffffffffffffffffffffffffffffffff168152602001908152602001600020600080820160006101000a81549060ff02191690556000820160016101000a81549073ffffffffffffffffffffffffffffffffffffffff02191690556000820160156101000a81549060ff0219169055600182016000905550506000601681819054906101000a900460ff16809291906001900391906101000a81548160ff021916908360ff160217905550507fa14a79af012d1756818f9bd59ccfc9ad185a71df86b9392d9059d9e6faf6d6448160405161126491906122c4565b60405180910390a150565b60008060009054906101000a900473ffffffffffffffffffffffffffffffffffffffff16905090565b600060169054906101000a900460ff1681565b6112b3611eba565b600360008060149054906101000a900460ff1660ff1681526020019081526020016000206040518060800160405290816000820160009054906101000a900460ff1660ff1660ff1681526020016000820160019054906101000a900473ffffffffffffffffffffffffffffffffffffffff1673ffffffffffffffffffffffffffffffffffffffff1673ffffffffffffffffffffffffffffffffffffffff168152602001600182018054600181600116156101000203166002900480601f0160208091040260200160405190810160405280929190818152602001828054600181600116156101000203166002900480156113ee5780601f106113c3576101008083540402835291602001916113ee565b820191906000526020600020905b8154815290600101906020018083116113d157829003601f168201915b50505050508152602001600282015481525050905090565b61140e611ddc565b73ffffffffffffffffffffffffffffffffffffffff1660008054906101000a900473ffffffffffffffffffffffffffffffffffffffff1673ffffffffffffffffffffffffffffffffffffffff16146114ce576040517f08c379a00000000000000000000000000000000000000000000000000000000081526004018080602001828103825260208152602001807f4f776e61626c653a2063616c6c6572206973206e6f7420746865206f776e657281525060200191505060405180910390fd5b6000600460009054906101000a900460ff16905060006004905080600460006101000a81548160ff0219169083600581111561150657fe5b02179055507fc379d349a6301baf50fb2f98d829f4ae10b1cdb7c66f4e4d8117302df7b8cd4c60405160405180910390a17f0a97a4ee45751e2abf3e4fc8946939630b11b371ea8ae39ccdc3056e98f5cc3f828260405161156892919061238a565b60405180910390a15050565b600060149054906101000a900460ff1681565b6060600180548060200260200160405190810160405280929190818152602001828054801561160b57602002820191906000526020600020905b8160009054906101000a900473ffffffffffffffffffffffffffffffffffffffff1673ffffffffffffffffffffffffffffffffffffffff16815260200190600101908083116115c1575b5050505050905090565b61161d611ddc565b73ffffffffffffffffffffffffffffffffffffffff1660008054906101000a900473ffffffffffffffffffffffffffffffffffffffff1673ffffffffffffffffffffffffffffffffffffffff16146116dd576040517f08c379a00000000000000000000000000000000000000000000000000000000081526004018080602001828103825260208152602001807f4f776e61626c653a2063616c6c6572206973206e6f7420746865206f776e657281525060200191505060405180910390fd5b6000600460009054906101000a900460ff16905060006002905080600460006101000a81548160ff0219169083600581111561171557fe5b02179055507f240cb87b2e4df4c318e72bd714d45a9cad60249e883ff56b1fffd83a4595a8fa60405160405180910390a17f0a97a4ee45751e2abf3e4fc8946939630b11b371ea8ae39ccdc3056e98f5cc3f828260405161177792919061238a565b60405180910390a15050565b61178b611ddc565b73ffffffffffffffffffffffffffffffffffffffff1660008054906101000a900473ffffffffffffffffffffffffffffffffffffffff1673ffffffffffffffffffffffffffffffffffffffff161461184b576040517f08c379a00000000000000000000000000000000000000000000000000000000081526004018080602001828103825260208152602001807f4f776e61626c653a2063616c6c6572206973206e6f7420746865206f776e657281525060200191505060405180910390fd5b6000600460009054906101000a900460ff16905060006003905080600460006101000a81548160ff0219169083600581111561188357fe5b02179055507f1b8e19a458c1bcd88553332c518cc5c4e2d5793e712ee766d4f1c14f672ef1f560405160405180910390a17f0a97a4ee45751e2abf3e4fc8946939630b11b371ea8ae39ccdc3056e98f5cc3f82826040516118e592919061238a565b60405180910390a15050565b6118f9611ddc565b73ffffffffffffffffffffffffffffffffffffffff1660008054906101000a900473ffffffffffffffffffffffffffffffffffffffff1673ffffffffffffffffffffffffffffffffffffffff16146119b9576040517f08c379a00000000000000000000000000000000000000000000000000000000081526004018080602001828103825260208152602001807f4f776e61626c653a2063616c6c6572206973206e6f7420746865206f776e657281525060200191505060405180910390fd5b600073ffffffffffffffffffffffffffffffffffffffff168173ffffffffffffffffffffffffffffffffffffffff161415611a3f576040517f08c379a00000000000000000000000000000000000000000000000000000000081526004018080602001828103825260268152602001806126d36026913960400191505060405180910390fd5b8073ffffffffffffffffffffffffffffffffffffffff1660008054906101000a900473ffffffffffffffffffffffffffffffffffffffff1673ffffffffffffffffffffffffffffffffffffffff167f8be0079c531659141344cd1fd0a4f28419497f9722a3daafe3b4186f6b6457e060405160405180910390a3806000806101000a81548173ffffffffffffffffffffffffffffffffffffffff021916908373ffffffffffffffffffffffffffffffffffffffff16021790555050565b611b04611ddc565b73ffffffffffffffffffffffffffffffffffffffff1660008054906101000a900473ffffffffffffffffffffffffffffffffffffffff1673ffffffffffffffffffffffffffffffffffffffff1614611bc4576040517f08c379a00000000000000000000000000000000000000000000000000000000081526004018080602001828103825260208152602001807f4f776e61626c653a2063616c6c6572206973206e6f7420746865206f776e657281525060200191505060405180910390fd5b60006005811115611bd157fe5b600460009054906101000a900460ff166005811115611bec57fe5b14611bf657600080fd5b600060405180608001604052806001151581526020018373ffffffffffffffffffffffffffffffffffffffff1681526020016000151581526020016000815250905080600260008473ffffffffffffffffffffffffffffffffffffffff1673ffffffffffffffffffffffffffffffffffffffff16815260200190815260200160002060008201518160000160006101000a81548160ff02191690831515021790555060208201518160000160016101000a81548173ffffffffffffffffffffffffffffffffffffffff021916908373ffffffffffffffffffffffffffffffffffffffff16021790555060408201518160000160156101000a81548160ff021916908315150217905550606082015181600101559050506001829080600181540180825580915050600190039060005260206000200160009091909190916101000a81548173ffffffffffffffffffffffffffffffffffffffff021916908373ffffffffffffffffffffffffffffffffffffffff1602179055506000601681819054906101000a900460ff168092919060010191906101000a81548160ff021916908360ff160217905550507fb6be2187d059cc2a55fe29e0e503b566e1e0f8c8780096e185429350acffd3dd82604051611dd091906122c4565b60405180910390a15050565b600033905090565b50805460018160011615610100020316600290046000825580601f10611e0a5750611e29565b601f016020900490600052602060002090810190611e289190611efb565b5b50565b828054600181600116156101000203166002900490600052602060002090601f016020900481019282611e625760008555611ea9565b82601f10611e7b57805160ff1916838001178555611ea9565b82800160010185558215611ea9579182015b82811115611ea8578251825591602001919060010190611e8d565b5b509050611eb69190611efb565b5090565b6040518060800160405280600060ff168152602001600073ffffffffffffffffffffffffffffffffffffffff16815260200160608152602001600081525090565b5b80821115611f14576000816000905550600101611efc565b5090565b6000611f2b611f26846124e3565b6124b2565b905082815260208101848484011115611f4357600080fd5b611f4e84828561263b565b509392505050565b600081359050611f65816126a4565b92915050565b600082601f830112611f7c57600080fd5b8135611f8c848260208601611f18565b91505092915050565b600081359050611fa4816126bb565b92915050565b600060208284031215611fbc57600080fd5b6000611fca84828501611f56565b91505092915050565b600060208284031215611fe557600080fd5b600082013567ffffffffffffffff811115611fff57600080fd5b61200b84828501611f6b565b91505092915050565b60006020828403121561202657600080fd5b600061203484828501611f95565b91505092915050565b60006120498383612064565b60208301905092915050565b61205e816125e1565b82525050565b61206d81612579565b82525050565b61207c81612579565b82525050565b600061208d82612523565b6120978185612546565b93506120a283612513565b8060005b838110156120d35781516120ba888261203d565b97506120c583612539565b9250506001810190506120a6565b5085935050505092915050565b6120e98161258b565b82525050565b6120f8816125f3565b82525050565b60006121098261252e565b6121138185612557565b935061212381856020860161264a565b61212c8161267f565b840191505092915050565b60006121428261252e565b61214c8185612568565b935061215c81856020860161264a565b6121658161267f565b840191505092915050565b600061217d601583612568565b91507f766f746572206e6f742077686974656c697374656400000000000000000000006000830152602082019050919050565b60006121bd602183612568565b91507f50726f706f73616c732073657373696f6e20686173206e6f742073746172746560008301527f64000000000000000000000000000000000000000000000000000000000000006020830152604082019050919050565b600060808301600083015161222e60008601826122a6565b5060208301516122416020860182612064565b506040830151848203604086015261225982826120fe565b915050606083015161226e6060860182612279565b508091505092915050565b612282816125ca565b82525050565b612291816125ca565b82525050565b6122a081612629565b82525050565b6122af816125d4565b82525050565b6122be816125d4565b82525050565b60006020820190506122d96000830184612073565b92915050565b60006040820190506122f46000830185612055565b6123016020830184612288565b9392505050565b600060208201905081810360008301526123228184612082565b905092915050565b600060808201905061233f60008301876120e0565b61234c6020830186612073565b61235960408301856120e0565b6123666060830184612288565b95945050505050565b600060208201905061238460008301846120ef565b92915050565b600060408201905061239f60008301856120ef565b6123ac60208301846120ef565b9392505050565b600060208201905081810360008301526123cc81612170565b9050919050565b600060208201905081810360008301526123ec816121b0565b9050919050565b6000602082019050818103600083015261240d8184612216565b905092915050565b600060208201905061242a6000830184612288565b92915050565b60006020820190506124456000830184612297565b92915050565b600060208201905061246060008301846122b5565b92915050565b600060808201905061247b60008301876122b5565b6124886020830186612073565b818103604083015261249a8185612137565b90506124a96060830184612288565b95945050505050565b6000604051905081810181811067ffffffffffffffff821117156124d9576124d861267d565b5b8060405250919050565b600067ffffffffffffffff8211156124fe576124fd61267d565b5b601f19601f8301169050602081019050919050565b6000819050602082019050919050565b600081519050919050565b600081519050919050565b6000602082019050919050565b600082825260208201905092915050565b600082825260208201905092915050565b600082825260208201905092915050565b6000612584826125aa565b9050919050565b60008115159050919050565b60008190506125a582612690565b919050565b600073ffffffffffffffffffffffffffffffffffffffff82169050919050565b6000819050919050565b600060ff82169050919050565b60006125ec82612605565b9050919050565b60006125fe82612597565b9050919050565b600061261082612617565b9050919050565b6000612622826125aa565b9050919050565b6000612634826125d4565b9050919050565b82818337600083830152505050565b60005b8381101561266857808201518184015260208101905061264d565b83811115612677576000848401525b50505050565bfe5b6000601f19601f8301169050919050565b600681106126a1576126a061267d565b5b50565b6126ad81612579565b81146126b857600080fd5b50565b6126c4816125ca565b81146126cf57600080fd5b5056fe4f776e61626c653a206e6577206f776e657220697320746865207a65726f2061646472657373a26469706673582212204a80637c1aa71dd21768119bd6933d754261411bbfea1bf7f036f0e4f07d099264736f6c63430007060033",
  "immutableReferences": {},
  "source": "///SPDX-License-Identifier: GPL-3.0\r\npragma solidity ^0.7.4;\r\npragma experimental ABIEncoderV2;\r\n\r\n/* import contrat ownable*/\r\nimport \"./Ownable.sol\";\r\n\r\n/**\r\n * @title Voting\r\n   @author Sandy,Julien,Stphane\r\n   @notice Contrat de vote, getsion par un superadmin\r\n */\r\n\r\ncontract Voting is Ownable {\r\n    uint8 public winningProposalId;\r\n\r\n    //increment d'ids\r\n    uint8 public proposalIds;\r\n    uint8 public votersCount;\r\n\r\n    struct Voter {\r\n        bool isRegistered;\r\n        address _address;\r\n        bool hasVoted;\r\n        // voir l'utilit :\r\n        uint256 votedProposalId;\r\n    }\r\n\r\n    struct Proposal {\r\n        uint8 id;\r\n        address owner;\r\n        string description;\r\n        uint256 voteCount;\r\n    }\r\n\r\n    address[] voters;\r\n    mapping(address => Voter) public whiteList;\r\n    mapping(uint256 => Proposal) public proposals;\r\n\r\n    enum WorkflowStatus {\r\n        RegisteringVoters,\r\n        ProposalsRegistrationStarted,\r\n        ProposalsRegistrationEnded,\r\n        VotingSessionStarted,\r\n        VotingSessionEnded,\r\n        VotesTallied\r\n    }\r\n\r\n    WorkflowStatus public status;\r\n\r\n    ///@notice Events\r\n    event NewVotingSystem();\r\n    event VoterRegistered(address voterAddress);\r\n    event VoterRemoved(address _address);\r\n    event ProposalsRegistrationStarted();\r\n    event ProposalsRegistrationEnded();\r\n    event ProposalRegistered(uint256 proposalId);\r\n    event ProposalRemoved(uint256 proposalId);\r\n    event VotingSessionStarted();\r\n    event VotingSessionEnded();\r\n    event Voted(address voter, uint256 proposalId);\r\n    event VotesTallied(uint8 _winningProposals);\r\n    event WorkflowStatusChange(\r\n        WorkflowStatus previousStatus,\r\n        WorkflowStatus newStatus\r\n    );\r\n\r\n    constructor() {\r\n        emit NewVotingSystem();\r\n    }\r\n\r\n    function getVoters() public view returns(address[] memory) {\r\n        return voters;\r\n    }\r\n\r\n    function getWinningProposal() public view returns (Proposal memory proposal){\r\n      //a voir en cas de plusieurs gagnnats boucle ->\r\n        return proposals[winningProposalId];\r\n    }\r\n\r\n    ///@param _address  ajouter  la whitelist\r\n    function addVoter(address _address) public onlyOwner {\r\n        require(status == WorkflowStatus.RegisteringVoters);\r\n        Voter memory newVoter = Voter(true, _address, false, 0);\r\n        whiteList[_address] = newVoter;\r\n        voters.push(_address);\r\n        votersCount++;\r\n        emit VoterRegistered(_address);\r\n    }\r\n\r\n    function deleteVoter(address _address) public onlyOwner {\r\n        delete whiteList[_address];\r\n        votersCount--;\r\n        emit VoterRemoved(_address);\r\n    }\r\n\r\n    function resetVotingSession() public onlyOwner   {\r\n        WorkflowStatus previous = status;\r\n        WorkflowStatus newStatus = WorkflowStatus.RegisteringVoters;\r\n        status = newStatus;\r\n        emit NewVotingSystem();\r\n        emit WorkflowStatusChange(previous, newStatus);\r\n    }\r\n\r\n\r\n    function startProposalRegistration() public onlyOwner   {\r\n        WorkflowStatus previous = status;\r\n        WorkflowStatus newStatus = WorkflowStatus.ProposalsRegistrationStarted;\r\n        status = newStatus;\r\n        emit ProposalsRegistrationStarted();\r\n        emit WorkflowStatusChange(previous, newStatus);\r\n    }\r\n\r\n    function endProposalRegistration() public onlyOwner {\r\n        WorkflowStatus previous = status;\r\n        WorkflowStatus newStatus = WorkflowStatus.ProposalsRegistrationEnded;\r\n        status = newStatus;\r\n        emit ProposalsRegistrationEnded();\r\n        emit WorkflowStatusChange(previous, newStatus);\r\n    }\r\n\r\n    function startVotingSession() public onlyOwner {\r\n        WorkflowStatus previous = status;\r\n        WorkflowStatus newStatus = WorkflowStatus.VotingSessionStarted;\r\n        status = newStatus;\r\n        emit VotingSessionStarted();\r\n        emit WorkflowStatusChange(previous, newStatus);\r\n    }\r\n\r\n    function endVotingSession() public onlyOwner {\r\n        WorkflowStatus previous = status;\r\n        WorkflowStatus newStatus = WorkflowStatus.VotingSessionEnded;\r\n        status = newStatus;\r\n        emit VotingSessionEnded();\r\n        emit WorkflowStatusChange(previous, newStatus);\r\n    }\r\n\r\n    ///@dev Verification de la prsence de l'address dans la whitelist\r\n    modifier whiteListed() {\r\n        require(whiteList[msg.sender].isRegistered == true, \"voter not whitelisted\");\r\n        _;\r\n    }\r\n\r\n    ///@param _description est le nom de la proposition\r\n    function addProposal(string memory _description) public whiteListed() {\r\n        //obligation d'tre dans le workflow correspondant\r\n        //deux propositions identiques sont possibles  voir...\r\n        require(status == WorkflowStatus.ProposalsRegistrationStarted, \"Proposals session has not started\");\r\n        Proposal memory newProposal =\r\n        Proposal(proposalIds, msg.sender, _description, 0);\r\n        proposals[proposalIds] = newProposal;\r\n        proposalIds++;\r\n        emit ProposalRegistered(proposalIds);\r\n    }\r\n\r\n    function deleteProposal(uint256 _id) public whiteListed {\r\n        require(proposals[_id].owner == msg.sender);\r\n        delete proposals[_id];\r\n        emit ProposalRemoved(_id);\r\n    }\r\n    //a voir si on fait function delete proposal aussi pour l'admin\r\n    function deleteProposalAdmin(uint256 _id) public onlyOwner {\r\n        delete proposals[_id];\r\n    }\r\n\r\n    function vote(uint256 _id) public whiteListed {\r\n        require(status == WorkflowStatus.VotingSessionStarted);\r\n        require(whiteList[msg.sender].hasVoted == false);\r\n        whiteList[msg.sender].hasVoted = true;\r\n        proposals[_id].voteCount++;\r\n        emit Voted(msg.sender, _id);\r\n    }\r\n\r\n    /* function count() public onlyOwner {\r\n        require(status == WorkflowStatus.VotingSessionEnded);\r\n        uint8 id;\r\n        uint256 highestCount;\r\n        for (uint256 i = 0; i <= proposalIds; i++) {\r\n            if (highestCount < proposals[i].voteCount) {\r\n                highestCount = proposals[i].voteCount;\r\n                id = proposals[i].id;\r\n            }\r\n\r\n        }\r\n        winningProposalId = id;\r\n        status = WorkflowStatus.VotesTallied;\r\n        emit VotesTallied(winningProposalId);   \r\n    } */\r\n\r\n}\r\n",
  "sourcePath": "/Users/sandyinstructor/Documents/BLOCKCHAIN/Alyra/Defi/truffle-voting-syst/contracts/Voting.sol",
  "compiler": {
    "name": "solc",
    "version": "0.7.6+commit.7338295f.Emscripten.clang"
  },
  "schemaVersion": "3.3.4",
  "updatedAt": "2021-03-21T00:41:56.650Z",
  "networkType": "ethereum",
  "devdoc": {
    "author": "Sandy,Julien,Stphane",
    "kind": "dev",
    "methods": {
      "addProposal(string)": {
        "params": {
          "_description": "est le nom de la proposition"
        }
      },
      "addVoter(address)": {
        "params": {
          "_address": " ajouter  la whitelist"
        }
      },
      "owner()": {
        "details": "Returns the address of the current owner."
      },
      "renounceOwnership()": {
        "details": "Leaves the contract without owner. It will not be possible to call `onlyOwner` functions anymore. Can only be called by the current owner. NOTE: Renouncing ownership will leave the contract without an owner, thereby removing any functionality that is only available to the owner."
      },
      "transferOwnership(address)": {
        "details": "Transfers ownership of the contract to a new account (`newOwner`). Can only be called by the current owner."
      }
    },
    "title": "Voting",
    "version": 1
  },
  "userdoc": {
    "events": {
      "NewVotingSystem()": {
        "notice": "Events"
      }
    },
    "kind": "user",
    "methods": {},
    "notice": "Contrat de vote, getsion par un superadmin",
    "version": 1
  }
}