{
  "contractName": "Voting",
  "abi": [
    {
      "inputs": [],
      "stateMutability": "nonpayable",
      "type": "constructor"
    },
    {
      "anonymous": false,
      "inputs": [],
      "name": "NewVotingSystem",
      "type": "event"
    },
    {
      "anonymous": false,
      "inputs": [
        {
          "indexed": true,
          "internalType": "address",
          "name": "previousOwner",
          "type": "address"
        },
        {
          "indexed": true,
          "internalType": "address",
          "name": "newOwner",
          "type": "address"
        }
      ],
      "name": "OwnershipTransferred",
      "type": "event"
    },
    {
      "anonymous": false,
      "inputs": [
        {
          "indexed": false,
          "internalType": "uint256",
          "name": "proposalId",
          "type": "uint256"
        }
      ],
      "name": "ProposalRegistered",
      "type": "event"
    },
    {
      "anonymous": false,
      "inputs": [],
      "name": "ProposalsRegistrationEnded",
      "type": "event"
    },
    {
      "anonymous": false,
      "inputs": [],
      "name": "ProposalsRegistrationStarted",
      "type": "event"
    },
    {
      "anonymous": false,
      "inputs": [
        {
          "indexed": false,
          "internalType": "address",
          "name": "voter",
          "type": "address"
        },
        {
          "indexed": false,
          "internalType": "uint256",
          "name": "proposalId",
          "type": "uint256"
        }
      ],
      "name": "Voted",
      "type": "event"
    },
    {
      "anonymous": false,
      "inputs": [
        {
          "indexed": false,
          "internalType": "address",
          "name": "voterAddress",
          "type": "address"
        }
      ],
      "name": "VoterRegistered",
      "type": "event"
    },
    {
      "anonymous": false,
      "inputs": [
        {
          "indexed": false,
          "internalType": "address",
          "name": "voterAddress",
          "type": "address"
        }
      ],
      "name": "VoterRemoved",
      "type": "event"
    },
    {
      "anonymous": false,
      "inputs": [
        {
          "indexed": false,
          "internalType": "uint8",
          "name": "_winningProposals",
          "type": "uint8"
        }
      ],
      "name": "VotesTallied",
      "type": "event"
    },
    {
      "anonymous": false,
      "inputs": [],
      "name": "VotingSessionEnded",
      "type": "event"
    },
    {
      "anonymous": false,
      "inputs": [],
      "name": "VotingSessionStarted",
      "type": "event"
    },
    {
      "anonymous": false,
      "inputs": [
        {
          "indexed": false,
          "internalType": "enum Voting.WorkflowStatus",
          "name": "previousStatus",
          "type": "uint8"
        },
        {
          "indexed": false,
          "internalType": "enum Voting.WorkflowStatus",
          "name": "newStatus",
          "type": "uint8"
        }
      ],
      "name": "WorkflowStatusChange",
      "type": "event"
    },
    {
      "inputs": [],
      "name": "owner",
      "outputs": [
        {
          "internalType": "address",
          "name": "",
          "type": "address"
        }
      ],
      "stateMutability": "view",
      "type": "function",
      "constant": true
    },
    {
      "inputs": [],
      "name": "proposalIds",
      "outputs": [
        {
          "internalType": "uint8",
          "name": "",
          "type": "uint8"
        }
      ],
      "stateMutability": "view",
      "type": "function",
      "constant": true
    },
    {
      "inputs": [
        {
          "internalType": "uint256",
          "name": "",
          "type": "uint256"
        }
      ],
      "name": "proposals",
      "outputs": [
        {
          "internalType": "uint8",
          "name": "id",
          "type": "uint8"
        },
        {
          "internalType": "address",
          "name": "owner",
          "type": "address"
        },
        {
          "internalType": "string",
          "name": "description",
          "type": "string"
        },
        {
          "internalType": "uint256",
          "name": "voteCount",
          "type": "uint256"
        }
      ],
      "stateMutability": "view",
      "type": "function",
      "constant": true
    },
    {
      "inputs": [],
      "name": "renounceOwnership",
      "outputs": [],
      "stateMutability": "nonpayable",
      "type": "function"
    },
    {
      "inputs": [],
      "name": "status",
      "outputs": [
        {
          "internalType": "enum Voting.WorkflowStatus",
          "name": "",
          "type": "uint8"
        }
      ],
      "stateMutability": "view",
      "type": "function",
      "constant": true
    },
    {
      "inputs": [
        {
          "internalType": "address",
          "name": "newOwner",
          "type": "address"
        }
      ],
      "name": "transferOwnership",
      "outputs": [],
      "stateMutability": "nonpayable",
      "type": "function"
    },
    {
      "inputs": [
        {
          "internalType": "address",
          "name": "",
          "type": "address"
        }
      ],
      "name": "whiteList",
      "outputs": [
        {
          "internalType": "bool",
          "name": "isRegistered",
          "type": "bool"
        },
        {
          "internalType": "address",
          "name": "_address",
          "type": "address"
        },
        {
          "internalType": "bool",
          "name": "hasVoted",
          "type": "bool"
        },
        {
          "internalType": "uint256",
          "name": "votedProposalId",
          "type": "uint256"
        }
      ],
      "stateMutability": "view",
      "type": "function",
      "constant": true
    },
    {
      "inputs": [],
      "name": "winningProposalId",
      "outputs": [
        {
          "internalType": "uint8",
          "name": "",
          "type": "uint8"
        }
      ],
      "stateMutability": "view",
      "type": "function",
      "constant": true
    },
    {
      "inputs": [],
      "name": "getWinningProposal",
      "outputs": [
        {
          "components": [
            {
              "internalType": "uint8",
              "name": "id",
              "type": "uint8"
            },
            {
              "internalType": "address",
              "name": "owner",
              "type": "address"
            },
            {
              "internalType": "string",
              "name": "description",
              "type": "string"
            },
            {
              "internalType": "uint256",
              "name": "voteCount",
              "type": "uint256"
            }
          ],
          "internalType": "struct Voting.Proposal",
          "name": "proposal",
          "type": "tuple"
        }
      ],
      "stateMutability": "view",
      "type": "function",
      "constant": true
    },
    {
      "inputs": [
        {
          "internalType": "address",
          "name": "_address",
          "type": "address"
        }
      ],
      "name": "addVoter",
      "outputs": [],
      "stateMutability": "nonpayable",
      "type": "function"
    },
    {
      "inputs": [
        {
          "internalType": "address",
          "name": "_address",
          "type": "address"
        }
      ],
      "name": "deleteVoter",
      "outputs": [],
      "stateMutability": "nonpayable",
      "type": "function"
    },
    {
      "inputs": [],
      "name": "resetVotingSession",
      "outputs": [],
      "stateMutability": "nonpayable",
      "type": "function"
    },
    {
      "inputs": [],
      "name": "startProposalRegistration",
      "outputs": [],
      "stateMutability": "nonpayable",
      "type": "function"
    },
    {
      "inputs": [],
      "name": "endProposalRegistration",
      "outputs": [],
      "stateMutability": "nonpayable",
      "type": "function"
    },
    {
      "inputs": [],
      "name": "startVotingSession",
      "outputs": [],
      "stateMutability": "nonpayable",
      "type": "function"
    },
    {
      "inputs": [],
      "name": "endVotingSession",
      "outputs": [],
      "stateMutability": "nonpayable",
      "type": "function"
    },
    {
      "inputs": [
        {
          "internalType": "string",
          "name": "_description",
          "type": "string"
        }
      ],
      "name": "addProposal",
      "outputs": [],
      "stateMutability": "nonpayable",
      "type": "function"
    },
    {
      "inputs": [
        {
          "internalType": "uint256",
          "name": "_id",
          "type": "uint256"
        }
      ],
      "name": "deleteProposal",
      "outputs": [],
      "stateMutability": "nonpayable",
      "type": "function"
    },
    {
      "inputs": [
        {
          "internalType": "uint256",
          "name": "_id",
          "type": "uint256"
        }
      ],
      "name": "deleteProposalAdmin",
      "outputs": [],
      "stateMutability": "nonpayable",
      "type": "function"
    },
    {
      "inputs": [
        {
          "internalType": "uint256",
          "name": "_id",
          "type": "uint256"
        }
      ],
      "name": "vote",
      "outputs": [],
      "stateMutability": "nonpayable",
      "type": "function"
    },
    {
      "inputs": [],
      "name": "count",
      "outputs": [],
      "stateMutability": "nonpayable",
      "type": "function"
    }
  ],
  "bytecode": "0x608060405234801561001057600080fd5b5060006100216100f060201b60201c565b9050806000806101000a81548173ffffffffffffffffffffffffffffffffffffffff021916908373ffffffffffffffffffffffffffffffffffffffff1602179055508073ffffffffffffffffffffffffffffffffffffffff16600073ffffffffffffffffffffffffffffffffffffffff167f8be0079c531659141344cd1fd0a4f28419497f9722a3daafe3b4186f6b6457e060405160405180910390a3507f28c5e727295d809da653948416bdc4fe30913878a5f1332ded39bc4730d10c5660405160405180910390a16100f8565b600033905090565b612672806101076000396000f3fe608060405234801561001057600080fd5b50600436106101375760003560e01c8063715018a6116100b8578063a7bfab161161007c578063a7bfab16146102ce578063c64963c5146102d8578063e85a8f2a146102f6578063ee74c67814610300578063f2fde38b1461030a578063f4ab9adf1461032657610137565b8063715018a6146102505780638259d5531461025a57806388e1c739146102765780638da5cb5b14610292578063a5134620146102b057610137565b80632d5de3c9116100ff5780632d5de3c9146101bd5780632fdae3c5146101d9578063372c12b1146101f55780633d5af2ed1461022857806348d82c661461024657610137565b80630121b93f1461013c578063013cf08b1461015857806306661abd1461018b5780630f7e283814610195578063200d2ed21461019f575b600080fd5b61015660048036038101906101519190612044565b610342565b005b610172600480360381019061016d9190612044565b610526565b60405161018294939291906123e3565b60405180910390f35b61019361061b565b005b61019d610829565b005b6101a7610997565b6040516101b49190612307565b60405180910390f35b6101d760048036038101906101d29190612044565b6109aa565b005b6101f360048036038101906101ee9190612003565b610ade565b005b61020f600480360381019061020a9190611fda565b610d5d565b60405161021f94939291906122c2565b60405180910390f35b610230610dc7565b60405161023d91906123c8565b60405180910390f35b61024e610dda565b005b610258610f44565b005b610274600480360381019061026f9190612044565b6110ca565b005b610290600480360381019061028b9190611fda565b61123a565b005b61029a6113d5565b6040516102a7919061227e565b60405180910390f35b6102b86113fe565b6040516102c5919061238b565b60405180910390f35b6102d6611559565b005b6102e06116c7565b6040516102ed91906123c8565b60405180910390f35b6102fe6116da565b005b610308611848565b005b610324600480360381019061031f9190611fda565b6119b6565b005b610340600480360381019061033b9190611fda565b611bc1565b005b60011515600160003373ffffffffffffffffffffffffffffffffffffffff1673ffffffffffffffffffffffffffffffffffffffff16815260200190815260200160002060000160009054906101000a900460ff161515146103d8576040517f08c379a00000000000000000000000000000000000000000000000000000000081526004016103cf9061234b565b60405180910390fd5b600360058111156103e557fe5b600360009054906101000a900460ff16600581111561040057fe5b1461040a57600080fd5b60001515600160003373ffffffffffffffffffffffffffffffffffffffff1673ffffffffffffffffffffffffffffffffffffffff16815260200190815260200160002060000160159054906101000a900460ff1615151461046a57600080fd5b60018060003373ffffffffffffffffffffffffffffffffffffffff1673ffffffffffffffffffffffffffffffffffffffff16815260200190815260200160002060000160156101000a81548160ff02191690831515021790555060026000828152602001908152602001600020600201600081548092919060010191905055507f4d99b957a2bc29a30ebd96a7be8e68fe50a3c701db28a91436490b7d53870ca4338260405161051b929190612299565b60405180910390a150565b60026020528060005260406000206000915090508060000160009054906101000a900460ff16908060000160019054906101000a900473ffffffffffffffffffffffffffffffffffffffff1690806001018054600181600116156101000203166002900480601f01602080910402602001604051908101604052809291908181526020018280546001816001161561010002031660029004801561060b5780601f106105e05761010080835404028352916020019161060b565b820191906000526020600020905b8154815290600101906020018083116105ee57829003601f168201915b5050505050908060020154905084565b610623611e0c565b73ffffffffffffffffffffffffffffffffffffffff1660008054906101000a900473ffffffffffffffffffffffffffffffffffffffff1673ffffffffffffffffffffffffffffffffffffffff16146106e3576040517f08c379a00000000000000000000000000000000000000000000000000000000081526004018080602001828103825260208152602001807f4f776e61626c653a2063616c6c6572206973206e6f7420746865206f776e657281525060200191505060405180910390fd5b600460058111156106f057fe5b600360009054906101000a900460ff16600581111561070b57fe5b1461071557600080fd5b60008060005b600060159054906101000a900460ff1660ff16811161079f57600260008281526020019081526020016000206002015482101561079257600260008281526020019081526020016000206002015491506002600082815260200190815260200160002060000160009054906101000a900460ff1692505b808060010191505061071b565b5081600060146101000a81548160ff021916908360ff1602179055506005600360006101000a81548160ff021916908360058111156107da57fe5b02179055507f7c75ab0a0bf35a72ab671eb9c501a330c5572c09ecdc660fcf5564e5abaf0107600060149054906101000a900460ff1660405161081d91906123c8565b60405180910390a15050565b610831611e0c565b73ffffffffffffffffffffffffffffffffffffffff1660008054906101000a900473ffffffffffffffffffffffffffffffffffffffff1673ffffffffffffffffffffffffffffffffffffffff16146108f1576040517f08c379a00000000000000000000000000000000000000000000000000000000081526004018080602001828103825260208152602001807f4f776e61626c653a2063616c6c6572206973206e6f7420746865206f776e657281525060200191505060405180910390fd5b6000600360009054906101000a900460ff16905060006001905080600360006101000a81548160ff0219169083600581111561092957fe5b02179055507f344c25562921d075a298d34b6dd1fd00d36ff293974539dfd4a8c625d9f0064c60405160405180910390a17f0a97a4ee45751e2abf3e4fc8946939630b11b371ea8ae39ccdc3056e98f5cc3f828260405161098b929190612322565b60405180910390a15050565b600360009054906101000a900460ff1681565b6109b2611e0c565b73ffffffffffffffffffffffffffffffffffffffff1660008054906101000a900473ffffffffffffffffffffffffffffffffffffffff1673ffffffffffffffffffffffffffffffffffffffff1614610a72576040517f08c379a00000000000000000000000000000000000000000000000000000000081526004018080602001828103825260208152602001807f4f776e61626c653a2063616c6c6572206973206e6f7420746865206f776e657281525060200191505060405180910390fd5b60026000828152602001908152602001600020600080820160006101000a81549060ff02191690556000820160016101000a81549073ffffffffffffffffffffffffffffffffffffffff0219169055600182016000610ad19190611e14565b6002820160009055505050565b60011515600160003373ffffffffffffffffffffffffffffffffffffffff1673ffffffffffffffffffffffffffffffffffffffff16815260200190815260200160002060000160009054906101000a900460ff16151514610b74576040517f08c379a0000000000000000000000000000000000000000000000000000000008152600401610b6b9061234b565b60405180910390fd5b60016005811115610b8157fe5b600360009054906101000a900460ff166005811115610b9c57fe5b14610bdc576040517f08c379a0000000000000000000000000000000000000000000000000000000008152600401610bd39061236b565b60405180910390fd5b60006040518060800160405280600060159054906101000a900460ff1660ff1681526020013373ffffffffffffffffffffffffffffffffffffffff1681526020018381526020016000815250905080600260008060159054906101000a900460ff1660ff16815260200190815260200160002060008201518160000160006101000a81548160ff021916908360ff16021790555060208201518160000160016101000a81548173ffffffffffffffffffffffffffffffffffffffff021916908373ffffffffffffffffffffffffffffffffffffffff1602179055506040820151816001019080519060200190610cd3929190611e5c565b50606082015181600201559050506000601581819054906101000a900460ff168092919060010191906101000a81548160ff021916908360ff160217905550507f92e393e9b54e2f801d3ea4beb0c5e71a21cc34a5d34b77d0fb8a3aa1650dc18f600060159054906101000a900460ff16604051610d5191906123ad565b60405180910390a15050565b60016020528060005260406000206000915090508060000160009054906101000a900460ff16908060000160019054906101000a900473ffffffffffffffffffffffffffffffffffffffff16908060000160159054906101000a900460ff16908060010154905084565b600060159054906101000a900460ff1681565b610de2611e0c565b73ffffffffffffffffffffffffffffffffffffffff1660008054906101000a900473ffffffffffffffffffffffffffffffffffffffff1673ffffffffffffffffffffffffffffffffffffffff1614610ea2576040517f08c379a00000000000000000000000000000000000000000000000000000000081526004018080602001828103825260208152602001807f4f776e61626c653a2063616c6c6572206973206e6f7420746865206f776e657281525060200191505060405180910390fd5b6000600360009054906101000a900460ff169050600080600360006101000a81548160ff02191690836005811115610ed657fe5b02179055507f28c5e727295d809da653948416bdc4fe30913878a5f1332ded39bc4730d10c5660405160405180910390a17f0a97a4ee45751e2abf3e4fc8946939630b11b371ea8ae39ccdc3056e98f5cc3f8282604051610f38929190612322565b60405180910390a15050565b610f4c611e0c565b73ffffffffffffffffffffffffffffffffffffffff1660008054906101000a900473ffffffffffffffffffffffffffffffffffffffff1673ffffffffffffffffffffffffffffffffffffffff161461100c576040517f08c379a00000000000000000000000000000000000000000000000000000000081526004018080602001828103825260208152602001807f4f776e61626c653a2063616c6c6572206973206e6f7420746865206f776e657281525060200191505060405180910390fd5b600073ffffffffffffffffffffffffffffffffffffffff1660008054906101000a900473ffffffffffffffffffffffffffffffffffffffff1673ffffffffffffffffffffffffffffffffffffffff167f8be0079c531659141344cd1fd0a4f28419497f9722a3daafe3b4186f6b6457e060405160405180910390a360008060006101000a81548173ffffffffffffffffffffffffffffffffffffffff021916908373ffffffffffffffffffffffffffffffffffffffff160217905550565b60011515600160003373ffffffffffffffffffffffffffffffffffffffff1673ffffffffffffffffffffffffffffffffffffffff16815260200190815260200160002060000160009054906101000a900460ff16151514611160576040517f08c379a00000000000000000000000000000000000000000000000000000000081526004016111579061234b565b60405180910390fd5b3373ffffffffffffffffffffffffffffffffffffffff166002600083815260200190815260200160002060000160019054906101000a900473ffffffffffffffffffffffffffffffffffffffff1673ffffffffffffffffffffffffffffffffffffffff16146111ce57600080fd5b60026000828152602001908152602001600020600080820160006101000a81549060ff02191690556000820160016101000a81549073ffffffffffffffffffffffffffffffffffffffff021916905560018201600061122d9190611e14565b6002820160009055505050565b611242611e0c565b73ffffffffffffffffffffffffffffffffffffffff1660008054906101000a900473ffffffffffffffffffffffffffffffffffffffff1673ffffffffffffffffffffffffffffffffffffffff1614611302576040517f08c379a00000000000000000000000000000000000000000000000000000000081526004018080602001828103825260208152602001807f4f776e61626c653a2063616c6c6572206973206e6f7420746865206f776e657281525060200191505060405180910390fd5b600160008273ffffffffffffffffffffffffffffffffffffffff1673ffffffffffffffffffffffffffffffffffffffff168152602001908152602001600020600080820160006101000a81549060ff02191690556000820160016101000a81549073ffffffffffffffffffffffffffffffffffffffff02191690556000820160156101000a81549060ff0219169055600182016000905550507fa14a79af012d1756818f9bd59ccfc9ad185a71df86b9392d9059d9e6faf6d644816040516113ca919061227e565b60405180910390a150565b60008060009054906101000a900473ffffffffffffffffffffffffffffffffffffffff16905090565b611406611eea565b600260008060149054906101000a900460ff1660ff1681526020019081526020016000206040518060800160405290816000820160009054906101000a900460ff1660ff1660ff1681526020016000820160019054906101000a900473ffffffffffffffffffffffffffffffffffffffff1673ffffffffffffffffffffffffffffffffffffffff1673ffffffffffffffffffffffffffffffffffffffff168152602001600182018054600181600116156101000203166002900480601f0160208091040260200160405190810160405280929190818152602001828054600181600116156101000203166002900480156115415780601f1061151657610100808354040283529160200191611541565b820191906000526020600020905b81548152906001019060200180831161152457829003601f168201915b50505050508152602001600282015481525050905090565b611561611e0c565b73ffffffffffffffffffffffffffffffffffffffff1660008054906101000a900473ffffffffffffffffffffffffffffffffffffffff1673ffffffffffffffffffffffffffffffffffffffff1614611621576040517f08c379a00000000000000000000000000000000000000000000000000000000081526004018080602001828103825260208152602001807f4f776e61626c653a2063616c6c6572206973206e6f7420746865206f776e657281525060200191505060405180910390fd5b6000600360009054906101000a900460ff16905060006004905080600360006101000a81548160ff0219169083600581111561165957fe5b02179055507fc379d349a6301baf50fb2f98d829f4ae10b1cdb7c66f4e4d8117302df7b8cd4c60405160405180910390a17f0a97a4ee45751e2abf3e4fc8946939630b11b371ea8ae39ccdc3056e98f5cc3f82826040516116bb929190612322565b60405180910390a15050565b600060149054906101000a900460ff1681565b6116e2611e0c565b73ffffffffffffffffffffffffffffffffffffffff1660008054906101000a900473ffffffffffffffffffffffffffffffffffffffff1673ffffffffffffffffffffffffffffffffffffffff16146117a2576040517f08c379a00000000000000000000000000000000000000000000000000000000081526004018080602001828103825260208152602001807f4f776e61626c653a2063616c6c6572206973206e6f7420746865206f776e657281525060200191505060405180910390fd5b6000600360009054906101000a900460ff16905060006002905080600360006101000a81548160ff021916908360058111156117da57fe5b02179055507f240cb87b2e4df4c318e72bd714d45a9cad60249e883ff56b1fffd83a4595a8fa60405160405180910390a17f0a97a4ee45751e2abf3e4fc8946939630b11b371ea8ae39ccdc3056e98f5cc3f828260405161183c929190612322565b60405180910390a15050565b611850611e0c565b73ffffffffffffffffffffffffffffffffffffffff1660008054906101000a900473ffffffffffffffffffffffffffffffffffffffff1673ffffffffffffffffffffffffffffffffffffffff1614611910576040517f08c379a00000000000000000000000000000000000000000000000000000000081526004018080602001828103825260208152602001807f4f776e61626c653a2063616c6c6572206973206e6f7420746865206f776e657281525060200191505060405180910390fd5b6000600360009054906101000a900460ff16905060006003905080600360006101000a81548160ff0219169083600581111561194857fe5b02179055507f1b8e19a458c1bcd88553332c518cc5c4e2d5793e712ee766d4f1c14f672ef1f560405160405180910390a17f0a97a4ee45751e2abf3e4fc8946939630b11b371ea8ae39ccdc3056e98f5cc3f82826040516119aa929190612322565b60405180910390a15050565b6119be611e0c565b73ffffffffffffffffffffffffffffffffffffffff1660008054906101000a900473ffffffffffffffffffffffffffffffffffffffff1673ffffffffffffffffffffffffffffffffffffffff1614611a7e576040517f08c379a00000000000000000000000000000000000000000000000000000000081526004018080602001828103825260208152602001807f4f776e61626c653a2063616c6c6572206973206e6f7420746865206f776e657281525060200191505060405180910390fd5b600073ffffffffffffffffffffffffffffffffffffffff168173ffffffffffffffffffffffffffffffffffffffff161415611b04576040517f08c379a00000000000000000000000000000000000000000000000000000000081526004018080602001828103825260268152602001806126176026913960400191505060405180910390fd5b8073ffffffffffffffffffffffffffffffffffffffff1660008054906101000a900473ffffffffffffffffffffffffffffffffffffffff1673ffffffffffffffffffffffffffffffffffffffff167f8be0079c531659141344cd1fd0a4f28419497f9722a3daafe3b4186f6b6457e060405160405180910390a3806000806101000a81548173ffffffffffffffffffffffffffffffffffffffff021916908373ffffffffffffffffffffffffffffffffffffffff16021790555050565b611bc9611e0c565b73ffffffffffffffffffffffffffffffffffffffff1660008054906101000a900473ffffffffffffffffffffffffffffffffffffffff1673ffffffffffffffffffffffffffffffffffffffff1614611c89576040517f08c379a00000000000000000000000000000000000000000000000000000000081526004018080602001828103825260208152602001807f4f776e61626c653a2063616c6c6572206973206e6f7420746865206f776e657281525060200191505060405180910390fd5b60006005811115611c9657fe5b600360009054906101000a900460ff166005811115611cb157fe5b14611cbb57600080fd5b600060405180608001604052806001151581526020018373ffffffffffffffffffffffffffffffffffffffff1681526020016000151581526020016000815250905080600160008473ffffffffffffffffffffffffffffffffffffffff1673ffffffffffffffffffffffffffffffffffffffff16815260200190815260200160002060008201518160000160006101000a81548160ff02191690831515021790555060208201518160000160016101000a81548173ffffffffffffffffffffffffffffffffffffffff021916908373ffffffffffffffffffffffffffffffffffffffff16021790555060408201518160000160156101000a81548160ff021916908315150217905550606082015181600101559050507fb6be2187d059cc2a55fe29e0e503b566e1e0f8c8780096e185429350acffd3dd82604051611e00919061227e565b60405180910390a15050565b600033905090565b50805460018160011615610100020316600290046000825580601f10611e3a5750611e59565b601f016020900490600052602060002090810190611e589190611f2b565b5b50565b828054600181600116156101000203166002900490600052602060002090601f016020900481019282611e925760008555611ed9565b82601f10611eab57805160ff1916838001178555611ed9565b82800160010185558215611ed9579182015b82811115611ed8578251825591602001919060010190611ebd565b5b509050611ee69190611f2b565b5090565b6040518060800160405280600060ff168152602001600073ffffffffffffffffffffffffffffffffffffffff16815260200160608152602001600081525090565b5b80821115611f44576000816000905550600101611f2c565b5090565b6000611f5b611f5684612460565b61242f565b905082815260208101848484011115611f7357600080fd5b611f7e84828561257f565b509392505050565b600081359050611f95816125e8565b92915050565b600082601f830112611fac57600080fd5b8135611fbc848260208601611f48565b91505092915050565b600081359050611fd4816125ff565b92915050565b600060208284031215611fec57600080fd5b6000611ffa84828501611f86565b91505092915050565b60006020828403121561201557600080fd5b600082013567ffffffffffffffff81111561202f57600080fd5b61203b84828501611f9b565b91505092915050565b60006020828403121561205657600080fd5b600061206484828501611fc5565b91505092915050565b61207681612525565b82525050565b612085816124bd565b82525050565b612094816124bd565b82525050565b6120a3816124cf565b82525050565b6120b281612537565b82525050565b60006120c382612490565b6120cd818561249b565b93506120dd81856020860161258e565b6120e6816125c3565b840191505092915050565b60006120fc82612490565b61210681856124ac565b935061211681856020860161258e565b61211f816125c3565b840191505092915050565b60006121376015836124ac565b91507f766f746572206e6f742077686974656c697374656400000000000000000000006000830152602082019050919050565b60006121776021836124ac565b91507f50726f706f73616c732073657373696f6e20686173206e6f742073746172746560008301527f64000000000000000000000000000000000000000000000000000000000000006020830152604082019050919050565b60006080830160008301516121e86000860182612260565b5060208301516121fb602086018261207c565b506040830151848203604086015261221382826120b8565b91505060608301516122286060860182612233565b508091505092915050565b61223c8161250e565b82525050565b61224b8161250e565b82525050565b61225a8161256d565b82525050565b61226981612518565b82525050565b61227881612518565b82525050565b6000602082019050612293600083018461208b565b92915050565b60006040820190506122ae600083018561206d565b6122bb6020830184612242565b9392505050565b60006080820190506122d7600083018761209a565b6122e4602083018661208b565b6122f1604083018561209a565b6122fe6060830184612242565b95945050505050565b600060208201905061231c60008301846120a9565b92915050565b600060408201905061233760008301856120a9565b61234460208301846120a9565b9392505050565b600060208201905081810360008301526123648161212a565b9050919050565b600060208201905081810360008301526123848161216a565b9050919050565b600060208201905081810360008301526123a581846121d0565b905092915050565b60006020820190506123c26000830184612251565b92915050565b60006020820190506123dd600083018461226f565b92915050565b60006080820190506123f8600083018761226f565b612405602083018661208b565b818103604083015261241781856120f1565b90506124266060830184612242565b95945050505050565b6000604051905081810181811067ffffffffffffffff82111715612456576124556125c1565b5b8060405250919050565b600067ffffffffffffffff82111561247b5761247a6125c1565b5b601f19601f8301169050602081019050919050565b600081519050919050565b600082825260208201905092915050565b600082825260208201905092915050565b60006124c8826124ee565b9050919050565b60008115159050919050565b60008190506124e9826125d4565b919050565b600073ffffffffffffffffffffffffffffffffffffffff82169050919050565b6000819050919050565b600060ff82169050919050565b600061253082612549565b9050919050565b6000612542826124db565b9050919050565b60006125548261255b565b9050919050565b6000612566826124ee565b9050919050565b600061257882612518565b9050919050565b82818337600083830152505050565b60005b838110156125ac578082015181840152602081019050612591565b838111156125bb576000848401525b50505050565bfe5b6000601f19601f8301169050919050565b600681106125e5576125e46125c1565b5b50565b6125f1816124bd565b81146125fc57600080fd5b50565b6126088161250e565b811461261357600080fd5b5056fe4f776e61626c653a206e6577206f776e657220697320746865207a65726f2061646472657373a2646970667358221220b587b04f4d97e046f97e734e01314531af2de385864e047ac37782437887f5ac64736f6c63430007060033",
  "immutableReferences": {},
  "source": "///SPDX-License-Identifier: GPL-3.0\r\npragma solidity ^0.7.4;\r\npragma experimental ABIEncoderV2;\r\n\r\n/* import contrat ownable*/\r\nimport \"./Ownable.sol\";\r\n\r\n/**\r\n * @title Voting\r\n   @author Sandy,Julien,Stphane\r\n   @notice Contrat de vote, getsion par un superadmin\r\n */\r\n\r\ncontract Voting is Ownable {\r\n    uint8 public winningProposalId;\r\n\r\n    //increment d'ids\r\n    uint8 public proposalIds;\r\n\r\n    struct Voter {\r\n        bool isRegistered;\r\n        address _address;\r\n        bool hasVoted;\r\n        // voir l'utilit :\r\n        uint256 votedProposalId;\r\n    }\r\n\r\n    struct Proposal {\r\n        uint8 id;\r\n        address owner;\r\n        string description;\r\n        uint256 voteCount;\r\n    }\r\n\r\n    mapping(address => Voter) public whiteList;\r\n\r\n    mapping(uint256 => Proposal) public proposals;\r\n\r\n    enum WorkflowStatus {\r\n        RegisteringVoters,\r\n        ProposalsRegistrationStarted,\r\n        ProposalsRegistrationEnded,\r\n        VotingSessionStarted,\r\n        VotingSessionEnded,\r\n        VotesTallied\r\n    }\r\n\r\n    WorkflowStatus public status;\r\n\r\n    ///@notice Events\r\n    event NewVotingSystem();\r\n    event VoterRegistered(address voterAddress);\r\n    event VoterRemoved(address voterAddress);\r\n    event ProposalsRegistrationStarted();\r\n    event ProposalsRegistrationEnded();\r\n    event ProposalRegistered(uint256 proposalId);\r\n    event VotingSessionStarted();\r\n    event VotingSessionEnded();\r\n    event Voted(address voter, uint256 proposalId);\r\n    event VotesTallied(uint8 _winningProposals);\r\n    event WorkflowStatusChange(\r\n        WorkflowStatus previousStatus,\r\n        WorkflowStatus newStatus\r\n    );\r\n\r\n    constructor() {\r\n        emit NewVotingSystem();\r\n    }\r\n\r\n    function getWinningProposal() public view returns (Proposal memory proposal){\r\n      //a voir en cas de plusieurs gagnnats boucle ->\r\n        return proposals[winningProposalId];\r\n    }\r\n\r\n    ///@param _address  ajouter  la whitelist\r\n    function addVoter(address _address) public onlyOwner {\r\n        require(status == WorkflowStatus.RegisteringVoters);\r\n        Voter memory newVoter = Voter(true, _address, false, 0);\r\n        whiteList[_address] = newVoter;\r\n        emit VoterRegistered(_address);\r\n    }\r\n\r\n    function deleteVoter(address _address) public onlyOwner {\r\n        delete whiteList[_address];\r\n         emit VoterRemoved(_address);\r\n    }\r\n\r\n    function resetVotingSession() public onlyOwner   {\r\n        WorkflowStatus previous = status;\r\n        WorkflowStatus newStatus = WorkflowStatus.RegisteringVoters;\r\n        status = newStatus;\r\n        emit NewVotingSystem();\r\n        emit WorkflowStatusChange(previous, newStatus);\r\n    }\r\n\r\n\r\n    function startProposalRegistration() public onlyOwner   {\r\n        WorkflowStatus previous = status;\r\n        WorkflowStatus newStatus = WorkflowStatus.ProposalsRegistrationStarted;\r\n        status = newStatus;\r\n        emit ProposalsRegistrationStarted();\r\n        emit WorkflowStatusChange(previous, newStatus);\r\n    }\r\n\r\n    function endProposalRegistration() public onlyOwner {\r\n        WorkflowStatus previous = status;\r\n        WorkflowStatus newStatus = WorkflowStatus.ProposalsRegistrationEnded;\r\n        status = newStatus;\r\n        emit ProposalsRegistrationEnded();\r\n        emit WorkflowStatusChange(previous, newStatus);\r\n    }\r\n\r\n    function startVotingSession() public onlyOwner {\r\n        WorkflowStatus previous = status;\r\n        WorkflowStatus newStatus = WorkflowStatus.VotingSessionStarted;\r\n        status = newStatus;\r\n        emit VotingSessionStarted();\r\n        emit WorkflowStatusChange(previous, newStatus);\r\n    }\r\n\r\n    function endVotingSession() public onlyOwner {\r\n        WorkflowStatus previous = status;\r\n        WorkflowStatus newStatus = WorkflowStatus.VotingSessionEnded;\r\n        status = newStatus;\r\n        emit VotingSessionEnded();\r\n        emit WorkflowStatusChange(previous, newStatus);\r\n    }\r\n\r\n    ///@dev Verification de la prsence de l'address dans la whitelist\r\n    modifier whiteListed() {\r\n        require(whiteList[msg.sender].isRegistered == true, \"voter not whitelisted\");\r\n        _;\r\n    }\r\n\r\n    ///@param _description est le nom de la proposition\r\n    function addProposal(string memory _description) public whiteListed {\r\n        //obligation d'tre dans le workflow correspondant\r\n        //deux propositions identiques sont possibles  voir...\r\n        require(status == WorkflowStatus.ProposalsRegistrationStarted, \"Proposals session has not started\");\r\n        Proposal memory newProposal =\r\n        Proposal(proposalIds, msg.sender, _description, 0);\r\n        proposals[proposalIds] = newProposal;\r\n        proposalIds++;\r\n        emit ProposalRegistered(proposalIds);\r\n    }\r\n\r\n    function deleteProposal(uint256 _id) public whiteListed {\r\n        require(proposals[_id].owner == msg.sender);\r\n        delete proposals[_id];\r\n    }\r\n    //a voir si on fait function delete proposal aussi pour l'admin\r\n    function deleteProposalAdmin(uint256 _id) public onlyOwner {\r\n        delete proposals[_id];\r\n    }\r\n\r\n    function vote(uint256 _id) public whiteListed {\r\n        require(status == WorkflowStatus.VotingSessionStarted);\r\n        require(whiteList[msg.sender].hasVoted == false);\r\n        whiteList[msg.sender].hasVoted = true;\r\n        proposals[_id].voteCount++;\r\n        emit Voted(msg.sender, _id);\r\n    }\r\n\r\n    function count() public onlyOwner {\r\n        require(status == WorkflowStatus.VotingSessionEnded);\r\n        uint8 id;\r\n        uint256 highestCount;\r\n        for (uint256 i = 0; i <= proposalIds; i++) {\r\n            if (highestCount < proposals[i].voteCount) {\r\n                highestCount = proposals[i].voteCount;\r\n                id = proposals[i].id;\r\n            }\r\n\r\n        }\r\n        winningProposalId = id;\r\n        status = WorkflowStatus.VotesTallied;\r\n        emit VotesTallied(winningProposalId);   \r\n    }\r\n\r\n}\r\n",
  "sourcePath": "/Users/sandyinstructor/Documents/BLOCKCHAIN/Alyra/templates/truffle-voting-syst/contracts/Voting.sol",
  "compiler": {
    "name": "solc",
    "version": "0.7.6+commit.7338295f.Emscripten.clang"
  },
  "schemaVersion": "3.3.4",
  "updatedAt": "2021-03-12T19:03:35.425Z",
  "networkType": "ethereum",
  "devdoc": {
    "author": "Sandy,Julien,Stphane",
    "kind": "dev",
    "methods": {
      "addProposal(string)": {
        "params": {
          "_description": "est le nom de la proposition"
        }
      },
      "addVoter(address)": {
        "params": {
          "_address": " ajouter  la whitelist"
        }
      },
      "owner()": {
        "details": "Returns the address of the current owner."
      },
      "renounceOwnership()": {
        "details": "Leaves the contract without owner. It will not be possible to call `onlyOwner` functions anymore. Can only be called by the current owner. NOTE: Renouncing ownership will leave the contract without an owner, thereby removing any functionality that is only available to the owner."
      },
      "transferOwnership(address)": {
        "details": "Transfers ownership of the contract to a new account (`newOwner`). Can only be called by the current owner."
      }
    },
    "title": "Voting",
    "version": 1
  },
  "userdoc": {
    "events": {
      "NewVotingSystem()": {
        "notice": "Events"
      }
    },
    "kind": "user",
    "methods": {},
    "notice": "Contrat de vote, getsion par un superadmin",
    "version": 1
  }
}