{
  "contractName": "Voting",
  "abi": [
    {
      "inputs": [],
      "stateMutability": "nonpayable",
      "type": "constructor"
    },
    {
      "anonymous": false,
      "inputs": [],
      "name": "NewVotingSystem",
      "type": "event"
    },
    {
      "anonymous": false,
      "inputs": [
        {
          "indexed": true,
          "internalType": "address",
          "name": "previousOwner",
          "type": "address"
        },
        {
          "indexed": true,
          "internalType": "address",
          "name": "newOwner",
          "type": "address"
        }
      ],
      "name": "OwnershipTransferred",
      "type": "event"
    },
    {
      "anonymous": false,
      "inputs": [
        {
          "indexed": false,
          "internalType": "uint256",
          "name": "proposalId",
          "type": "uint256"
        }
      ],
      "name": "ProposalRegistered",
      "type": "event"
    },
    {
      "anonymous": false,
      "inputs": [
        {
          "indexed": false,
          "internalType": "uint256",
          "name": "proposalId",
          "type": "uint256"
        }
      ],
      "name": "ProposalRemoved",
      "type": "event"
    },
    {
      "anonymous": false,
      "inputs": [],
      "name": "ProposalsRegistrationEnded",
      "type": "event"
    },
    {
      "anonymous": false,
      "inputs": [],
      "name": "ProposalsRegistrationStarted",
      "type": "event"
    },
    {
      "anonymous": false,
      "inputs": [
        {
          "indexed": false,
          "internalType": "address",
          "name": "voter",
          "type": "address"
        },
        {
          "indexed": false,
          "internalType": "uint256",
          "name": "proposalId",
          "type": "uint256"
        }
      ],
      "name": "Voted",
      "type": "event"
    },
    {
      "anonymous": false,
      "inputs": [
        {
          "indexed": false,
          "internalType": "address",
          "name": "voterAddress",
          "type": "address"
        }
      ],
      "name": "VoterRegistered",
      "type": "event"
    },
    {
      "anonymous": false,
      "inputs": [
        {
          "indexed": false,
          "internalType": "address",
          "name": "_address",
          "type": "address"
        }
      ],
      "name": "VoterRemoved",
      "type": "event"
    },
    {
      "anonymous": false,
      "inputs": [
        {
          "indexed": false,
          "internalType": "uint8",
          "name": "_winningProposals",
          "type": "uint8"
        }
      ],
      "name": "VotesTallied",
      "type": "event"
    },
    {
      "anonymous": false,
      "inputs": [],
      "name": "VotingSessionEnded",
      "type": "event"
    },
    {
      "anonymous": false,
      "inputs": [],
      "name": "VotingSessionStarted",
      "type": "event"
    },
    {
      "anonymous": false,
      "inputs": [
        {
          "indexed": false,
          "internalType": "enum Voting.WorkflowStatus",
          "name": "previousStatus",
          "type": "uint8"
        },
        {
          "indexed": false,
          "internalType": "enum Voting.WorkflowStatus",
          "name": "newStatus",
          "type": "uint8"
        }
      ],
      "name": "WorkflowStatusChange",
      "type": "event"
    },
    {
      "inputs": [],
      "name": "owner",
      "outputs": [
        {
          "internalType": "address",
          "name": "",
          "type": "address"
        }
      ],
      "stateMutability": "view",
      "type": "function",
      "constant": true
    },
    {
      "inputs": [],
      "name": "proposalIds",
      "outputs": [
        {
          "internalType": "uint8",
          "name": "",
          "type": "uint8"
        }
      ],
      "stateMutability": "view",
      "type": "function",
      "constant": true
    },
    {
      "inputs": [
        {
          "internalType": "uint256",
          "name": "",
          "type": "uint256"
        }
      ],
      "name": "proposals",
      "outputs": [
        {
          "internalType": "uint8",
          "name": "id",
          "type": "uint8"
        },
        {
          "internalType": "address",
          "name": "owner",
          "type": "address"
        },
        {
          "internalType": "string",
          "name": "description",
          "type": "string"
        },
        {
          "internalType": "uint256",
          "name": "voteCount",
          "type": "uint256"
        }
      ],
      "stateMutability": "view",
      "type": "function",
      "constant": true
    },
    {
      "inputs": [],
      "name": "renounceOwnership",
      "outputs": [],
      "stateMutability": "nonpayable",
      "type": "function"
    },
    {
      "inputs": [],
      "name": "status",
      "outputs": [
        {
          "internalType": "enum Voting.WorkflowStatus",
          "name": "",
          "type": "uint8"
        }
      ],
      "stateMutability": "view",
      "type": "function",
      "constant": true
    },
    {
      "inputs": [
        {
          "internalType": "address",
          "name": "newOwner",
          "type": "address"
        }
      ],
      "name": "transferOwnership",
      "outputs": [],
      "stateMutability": "nonpayable",
      "type": "function"
    },
    {
      "inputs": [],
      "name": "votersCount",
      "outputs": [
        {
          "internalType": "uint8",
          "name": "",
          "type": "uint8"
        }
      ],
      "stateMutability": "view",
      "type": "function",
      "constant": true
    },
    {
      "inputs": [
        {
          "internalType": "address",
          "name": "",
          "type": "address"
        }
      ],
      "name": "whiteList",
      "outputs": [
        {
          "internalType": "bool",
          "name": "isRegistered",
          "type": "bool"
        },
        {
          "internalType": "address",
          "name": "_address",
          "type": "address"
        },
        {
          "internalType": "bool",
          "name": "hasVoted",
          "type": "bool"
        },
        {
          "internalType": "uint256",
          "name": "votedProposalId",
          "type": "uint256"
        }
      ],
      "stateMutability": "view",
      "type": "function",
      "constant": true
    },
    {
      "inputs": [],
      "name": "winningProposalId",
      "outputs": [
        {
          "internalType": "uint8",
          "name": "",
          "type": "uint8"
        }
      ],
      "stateMutability": "view",
      "type": "function",
      "constant": true
    },
    {
      "inputs": [],
      "name": "getVoters",
      "outputs": [
        {
          "internalType": "address[]",
          "name": "",
          "type": "address[]"
        }
      ],
      "stateMutability": "view",
      "type": "function",
      "constant": true
    },
    {
      "inputs": [],
      "name": "getWinningProposal",
      "outputs": [
        {
          "components": [
            {
              "internalType": "uint8",
              "name": "id",
              "type": "uint8"
            },
            {
              "internalType": "address",
              "name": "owner",
              "type": "address"
            },
            {
              "internalType": "string",
              "name": "description",
              "type": "string"
            },
            {
              "internalType": "uint256",
              "name": "voteCount",
              "type": "uint256"
            }
          ],
          "internalType": "struct Voting.Proposal",
          "name": "proposal",
          "type": "tuple"
        }
      ],
      "stateMutability": "view",
      "type": "function",
      "constant": true
    },
    {
      "inputs": [
        {
          "internalType": "address",
          "name": "_address",
          "type": "address"
        }
      ],
      "name": "addVoter",
      "outputs": [],
      "stateMutability": "nonpayable",
      "type": "function"
    },
    {
      "inputs": [
        {
          "internalType": "address",
          "name": "_address",
          "type": "address"
        }
      ],
      "name": "deleteVoter",
      "outputs": [],
      "stateMutability": "nonpayable",
      "type": "function"
    },
    {
      "inputs": [],
      "name": "resetVotingSession",
      "outputs": [],
      "stateMutability": "nonpayable",
      "type": "function"
    },
    {
      "inputs": [],
      "name": "startProposalRegistration",
      "outputs": [],
      "stateMutability": "nonpayable",
      "type": "function"
    },
    {
      "inputs": [],
      "name": "endProposalRegistration",
      "outputs": [],
      "stateMutability": "nonpayable",
      "type": "function"
    },
    {
      "inputs": [],
      "name": "startVotingSession",
      "outputs": [],
      "stateMutability": "nonpayable",
      "type": "function"
    },
    {
      "inputs": [],
      "name": "endVotingSession",
      "outputs": [],
      "stateMutability": "nonpayable",
      "type": "function"
    },
    {
      "inputs": [
        {
          "internalType": "string",
          "name": "_description",
          "type": "string"
        }
      ],
      "name": "addProposal",
      "outputs": [],
      "stateMutability": "nonpayable",
      "type": "function"
    },
    {
      "inputs": [
        {
          "internalType": "uint256",
          "name": "_id",
          "type": "uint256"
        }
      ],
      "name": "deleteProposal",
      "outputs": [],
      "stateMutability": "nonpayable",
      "type": "function"
    },
    {
      "inputs": [
        {
          "internalType": "uint256",
          "name": "_id",
          "type": "uint256"
        }
      ],
      "name": "deleteProposalAdmin",
      "outputs": [],
      "stateMutability": "nonpayable",
      "type": "function"
    },
    {
      "inputs": [
        {
          "internalType": "uint256",
          "name": "_id",
          "type": "uint256"
        }
      ],
      "name": "vote",
      "outputs": [],
      "stateMutability": "nonpayable",
      "type": "function"
    },
    {
      "inputs": [],
      "name": "count",
      "outputs": [],
      "stateMutability": "nonpayable",
      "type": "function"
    }
  ],
  "bytecode": "0x608060405234801561001057600080fd5b5060006100216100f060201b60201c565b9050806000806101000a81548173ffffffffffffffffffffffffffffffffffffffff021916908373ffffffffffffffffffffffffffffffffffffffff1602179055508073ffffffffffffffffffffffffffffffffffffffff16600073ffffffffffffffffffffffffffffffffffffffff167f8be0079c531659141344cd1fd0a4f28419497f9722a3daafe3b4186f6b6457e060405160405180910390a3507f28c5e727295d809da653948416bdc4fe30913878a5f1332ded39bc4730d10c5660405160405180910390a16100f8565b600033905090565b612951806101076000396000f3fe608060405234801561001057600080fd5b506004361061014d5760003560e01c80638259d553116100c3578063c64963c51161007c578063c64963c51461030c578063cdd722531461032a578063e85a8f2a14610348578063ee74c67814610352578063f2fde38b1461035c578063f4ab9adf146103785761014d565b80638259d5531461027057806388e1c7391461028c5780638da5cb5b146102a857806398c07938146102c6578063a5134620146102e4578063a7bfab16146103025761014d565b80632d5de3c9116101155780632d5de3c9146101d35780632fdae3c5146101ef578063372c12b11461020b5780633d5af2ed1461023e57806348d82c661461025c578063715018a6146102665761014d565b80630121b93f14610152578063013cf08b1461016e57806306661abd146101a15780630f7e2838146101ab578063200d2ed2146101b5575b600080fd5b61016c60048036038101906101679190612237565b610394565b005b61018860048036038101906101839190612237565b610579565b6040516101989493929190612689565b60405180910390f35b6101a961066e565b005b6101b361087c565b005b6101bd6109ea565b6040516101ca9190612592565b60405180910390f35b6101ed60048036038101906101e89190612237565b6109fd565b005b610209600480360381019061020491906121f6565b610b31565b005b610225600480360381019061022091906121cd565b610db0565b604051610235949392919061254d565b60405180910390f35b610246610e1a565b604051610253919061266e565b60405180910390f35b610264610e2d565b005b61026e610f97565b005b61028a60048036038101906102859190612237565b61111d565b005b6102a660048036038101906102a191906121cd565b6112c4565b005b6102b0611492565b6040516102bd91906124e7565b60405180910390f35b6102ce6114bb565b6040516102db919061266e565b60405180910390f35b6102ec6114ce565b6040516102f99190612616565b60405180910390f35b61030a611629565b005b610314611797565b604051610321919061266e565b60405180910390f35b6103326117aa565b60405161033f919061252b565b60405180910390f35b610350611838565b005b61035a6119a6565b005b610376600480360381019061037191906121cd565b611b14565b005b610392600480360381019061038d91906121cd565b611d1f565b005b60011515600260003373ffffffffffffffffffffffffffffffffffffffff1673ffffffffffffffffffffffffffffffffffffffff16815260200190815260200160002060000160009054906101000a900460ff1615151461042a576040517f08c379a0000000000000000000000000000000000000000000000000000000008152600401610421906125d6565b60405180910390fd5b6003600581111561043757fe5b600460009054906101000a900460ff16600581111561045257fe5b1461045c57600080fd5b60001515600260003373ffffffffffffffffffffffffffffffffffffffff1673ffffffffffffffffffffffffffffffffffffffff16815260200190815260200160002060000160159054906101000a900460ff161515146104bc57600080fd5b6001600260003373ffffffffffffffffffffffffffffffffffffffff1673ffffffffffffffffffffffffffffffffffffffff16815260200190815260200160002060000160156101000a81548160ff02191690831515021790555060036000828152602001908152602001600020600201600081548092919060010191905055507f4d99b957a2bc29a30ebd96a7be8e68fe50a3c701db28a91436490b7d53870ca4338260405161056e929190612502565b60405180910390a150565b60036020528060005260406000206000915090508060000160009054906101000a900460ff16908060000160019054906101000a900473ffffffffffffffffffffffffffffffffffffffff1690806001018054600181600116156101000203166002900480601f01602080910402602001604051908101604052809291908181526020018280546001816001161561010002031660029004801561065e5780601f106106335761010080835404028352916020019161065e565b820191906000526020600020905b81548152906001019060200180831161064157829003601f168201915b5050505050908060020154905084565b610676611fff565b73ffffffffffffffffffffffffffffffffffffffff1660008054906101000a900473ffffffffffffffffffffffffffffffffffffffff1673ffffffffffffffffffffffffffffffffffffffff1614610736576040517f08c379a00000000000000000000000000000000000000000000000000000000081526004018080602001828103825260208152602001807f4f776e61626c653a2063616c6c6572206973206e6f7420746865206f776e657281525060200191505060405180910390fd5b6004600581111561074357fe5b600460009054906101000a900460ff16600581111561075e57fe5b1461076857600080fd5b60008060005b600060159054906101000a900460ff1660ff1681116107f25760036000828152602001908152602001600020600201548210156107e557600360008281526020019081526020016000206002015491506003600082815260200190815260200160002060000160009054906101000a900460ff1692505b808060010191505061076e565b5081600060146101000a81548160ff021916908360ff1602179055506005600460006101000a81548160ff0219169083600581111561082d57fe5b02179055507f7c75ab0a0bf35a72ab671eb9c501a330c5572c09ecdc660fcf5564e5abaf0107600060149054906101000a900460ff16604051610870919061266e565b60405180910390a15050565b610884611fff565b73ffffffffffffffffffffffffffffffffffffffff1660008054906101000a900473ffffffffffffffffffffffffffffffffffffffff1673ffffffffffffffffffffffffffffffffffffffff1614610944576040517f08c379a00000000000000000000000000000000000000000000000000000000081526004018080602001828103825260208152602001807f4f776e61626c653a2063616c6c6572206973206e6f7420746865206f776e657281525060200191505060405180910390fd5b6000600460009054906101000a900460ff16905060006001905080600460006101000a81548160ff0219169083600581111561097c57fe5b02179055507f344c25562921d075a298d34b6dd1fd00d36ff293974539dfd4a8c625d9f0064c60405160405180910390a17f0a97a4ee45751e2abf3e4fc8946939630b11b371ea8ae39ccdc3056e98f5cc3f82826040516109de9291906125ad565b60405180910390a15050565b600460009054906101000a900460ff1681565b610a05611fff565b73ffffffffffffffffffffffffffffffffffffffff1660008054906101000a900473ffffffffffffffffffffffffffffffffffffffff1673ffffffffffffffffffffffffffffffffffffffff1614610ac5576040517f08c379a00000000000000000000000000000000000000000000000000000000081526004018080602001828103825260208152602001807f4f776e61626c653a2063616c6c6572206973206e6f7420746865206f776e657281525060200191505060405180910390fd5b60036000828152602001908152602001600020600080820160006101000a81549060ff02191690556000820160016101000a81549073ffffffffffffffffffffffffffffffffffffffff0219169055600182016000610b249190612007565b6002820160009055505050565b60011515600260003373ffffffffffffffffffffffffffffffffffffffff1673ffffffffffffffffffffffffffffffffffffffff16815260200190815260200160002060000160009054906101000a900460ff16151514610bc7576040517f08c379a0000000000000000000000000000000000000000000000000000000008152600401610bbe906125d6565b60405180910390fd5b60016005811115610bd457fe5b600460009054906101000a900460ff166005811115610bef57fe5b14610c2f576040517f08c379a0000000000000000000000000000000000000000000000000000000008152600401610c26906125f6565b60405180910390fd5b60006040518060800160405280600060159054906101000a900460ff1660ff1681526020013373ffffffffffffffffffffffffffffffffffffffff1681526020018381526020016000815250905080600360008060159054906101000a900460ff1660ff16815260200190815260200160002060008201518160000160006101000a81548160ff021916908360ff16021790555060208201518160000160016101000a81548173ffffffffffffffffffffffffffffffffffffffff021916908373ffffffffffffffffffffffffffffffffffffffff1602179055506040820151816001019080519060200190610d2692919061204f565b50606082015181600201559050506000601581819054906101000a900460ff168092919060010191906101000a81548160ff021916908360ff160217905550507f92e393e9b54e2f801d3ea4beb0c5e71a21cc34a5d34b77d0fb8a3aa1650dc18f600060159054906101000a900460ff16604051610da49190612653565b60405180910390a15050565b60026020528060005260406000206000915090508060000160009054906101000a900460ff16908060000160019054906101000a900473ffffffffffffffffffffffffffffffffffffffff16908060000160159054906101000a900460ff16908060010154905084565b600060159054906101000a900460ff1681565b610e35611fff565b73ffffffffffffffffffffffffffffffffffffffff1660008054906101000a900473ffffffffffffffffffffffffffffffffffffffff1673ffffffffffffffffffffffffffffffffffffffff1614610ef5576040517f08c379a00000000000000000000000000000000000000000000000000000000081526004018080602001828103825260208152602001807f4f776e61626c653a2063616c6c6572206973206e6f7420746865206f776e657281525060200191505060405180910390fd5b6000600460009054906101000a900460ff169050600080600460006101000a81548160ff02191690836005811115610f2957fe5b02179055507f28c5e727295d809da653948416bdc4fe30913878a5f1332ded39bc4730d10c5660405160405180910390a17f0a97a4ee45751e2abf3e4fc8946939630b11b371ea8ae39ccdc3056e98f5cc3f8282604051610f8b9291906125ad565b60405180910390a15050565b610f9f611fff565b73ffffffffffffffffffffffffffffffffffffffff1660008054906101000a900473ffffffffffffffffffffffffffffffffffffffff1673ffffffffffffffffffffffffffffffffffffffff161461105f576040517f08c379a00000000000000000000000000000000000000000000000000000000081526004018080602001828103825260208152602001807f4f776e61626c653a2063616c6c6572206973206e6f7420746865206f776e657281525060200191505060405180910390fd5b600073ffffffffffffffffffffffffffffffffffffffff1660008054906101000a900473ffffffffffffffffffffffffffffffffffffffff1673ffffffffffffffffffffffffffffffffffffffff167f8be0079c531659141344cd1fd0a4f28419497f9722a3daafe3b4186f6b6457e060405160405180910390a360008060006101000a81548173ffffffffffffffffffffffffffffffffffffffff021916908373ffffffffffffffffffffffffffffffffffffffff160217905550565b60011515600260003373ffffffffffffffffffffffffffffffffffffffff1673ffffffffffffffffffffffffffffffffffffffff16815260200190815260200160002060000160009054906101000a900460ff161515146111b3576040517f08c379a00000000000000000000000000000000000000000000000000000000081526004016111aa906125d6565b60405180910390fd5b3373ffffffffffffffffffffffffffffffffffffffff166003600083815260200190815260200160002060000160019054906101000a900473ffffffffffffffffffffffffffffffffffffffff1673ffffffffffffffffffffffffffffffffffffffff161461122157600080fd5b60036000828152602001908152602001600020600080820160006101000a81549060ff02191690556000820160016101000a81549073ffffffffffffffffffffffffffffffffffffffff02191690556001820160006112809190612007565b600282016000905550507fd412ca680e6dcd7bc731a6c8d9ad74bea65b8d0dd85d47d29377d99c53326cf7816040516112b99190612638565b60405180910390a150565b6112cc611fff565b73ffffffffffffffffffffffffffffffffffffffff1660008054906101000a900473ffffffffffffffffffffffffffffffffffffffff1673ffffffffffffffffffffffffffffffffffffffff161461138c576040517f08c379a00000000000000000000000000000000000000000000000000000000081526004018080602001828103825260208152602001807f4f776e61626c653a2063616c6c6572206973206e6f7420746865206f776e657281525060200191505060405180910390fd5b600260008273ffffffffffffffffffffffffffffffffffffffff1673ffffffffffffffffffffffffffffffffffffffff168152602001908152602001600020600080820160006101000a81549060ff02191690556000820160016101000a81549073ffffffffffffffffffffffffffffffffffffffff02191690556000820160156101000a81549060ff0219169055600182016000905550506000601681819054906101000a900460ff16809291906001900391906101000a81548160ff021916908360ff160217905550507fa14a79af012d1756818f9bd59ccfc9ad185a71df86b9392d9059d9e6faf6d6448160405161148791906124e7565b60405180910390a150565b60008060009054906101000a900473ffffffffffffffffffffffffffffffffffffffff16905090565b600060169054906101000a900460ff1681565b6114d66120dd565b600360008060149054906101000a900460ff1660ff1681526020019081526020016000206040518060800160405290816000820160009054906101000a900460ff1660ff1660ff1681526020016000820160019054906101000a900473ffffffffffffffffffffffffffffffffffffffff1673ffffffffffffffffffffffffffffffffffffffff1673ffffffffffffffffffffffffffffffffffffffff168152602001600182018054600181600116156101000203166002900480601f0160208091040260200160405190810160405280929190818152602001828054600181600116156101000203166002900480156116115780601f106115e657610100808354040283529160200191611611565b820191906000526020600020905b8154815290600101906020018083116115f457829003601f168201915b50505050508152602001600282015481525050905090565b611631611fff565b73ffffffffffffffffffffffffffffffffffffffff1660008054906101000a900473ffffffffffffffffffffffffffffffffffffffff1673ffffffffffffffffffffffffffffffffffffffff16146116f1576040517f08c379a00000000000000000000000000000000000000000000000000000000081526004018080602001828103825260208152602001807f4f776e61626c653a2063616c6c6572206973206e6f7420746865206f776e657281525060200191505060405180910390fd5b6000600460009054906101000a900460ff16905060006004905080600460006101000a81548160ff0219169083600581111561172957fe5b02179055507fc379d349a6301baf50fb2f98d829f4ae10b1cdb7c66f4e4d8117302df7b8cd4c60405160405180910390a17f0a97a4ee45751e2abf3e4fc8946939630b11b371ea8ae39ccdc3056e98f5cc3f828260405161178b9291906125ad565b60405180910390a15050565b600060149054906101000a900460ff1681565b6060600180548060200260200160405190810160405280929190818152602001828054801561182e57602002820191906000526020600020905b8160009054906101000a900473ffffffffffffffffffffffffffffffffffffffff1673ffffffffffffffffffffffffffffffffffffffff16815260200190600101908083116117e4575b5050505050905090565b611840611fff565b73ffffffffffffffffffffffffffffffffffffffff1660008054906101000a900473ffffffffffffffffffffffffffffffffffffffff1673ffffffffffffffffffffffffffffffffffffffff1614611900576040517f08c379a00000000000000000000000000000000000000000000000000000000081526004018080602001828103825260208152602001807f4f776e61626c653a2063616c6c6572206973206e6f7420746865206f776e657281525060200191505060405180910390fd5b6000600460009054906101000a900460ff16905060006002905080600460006101000a81548160ff0219169083600581111561193857fe5b02179055507f240cb87b2e4df4c318e72bd714d45a9cad60249e883ff56b1fffd83a4595a8fa60405160405180910390a17f0a97a4ee45751e2abf3e4fc8946939630b11b371ea8ae39ccdc3056e98f5cc3f828260405161199a9291906125ad565b60405180910390a15050565b6119ae611fff565b73ffffffffffffffffffffffffffffffffffffffff1660008054906101000a900473ffffffffffffffffffffffffffffffffffffffff1673ffffffffffffffffffffffffffffffffffffffff1614611a6e576040517f08c379a00000000000000000000000000000000000000000000000000000000081526004018080602001828103825260208152602001807f4f776e61626c653a2063616c6c6572206973206e6f7420746865206f776e657281525060200191505060405180910390fd5b6000600460009054906101000a900460ff16905060006003905080600460006101000a81548160ff02191690836005811115611aa657fe5b02179055507f1b8e19a458c1bcd88553332c518cc5c4e2d5793e712ee766d4f1c14f672ef1f560405160405180910390a17f0a97a4ee45751e2abf3e4fc8946939630b11b371ea8ae39ccdc3056e98f5cc3f8282604051611b089291906125ad565b60405180910390a15050565b611b1c611fff565b73ffffffffffffffffffffffffffffffffffffffff1660008054906101000a900473ffffffffffffffffffffffffffffffffffffffff1673ffffffffffffffffffffffffffffffffffffffff1614611bdc576040517f08c379a00000000000000000000000000000000000000000000000000000000081526004018080602001828103825260208152602001807f4f776e61626c653a2063616c6c6572206973206e6f7420746865206f776e657281525060200191505060405180910390fd5b600073ffffffffffffffffffffffffffffffffffffffff168173ffffffffffffffffffffffffffffffffffffffff161415611c62576040517f08c379a00000000000000000000000000000000000000000000000000000000081526004018080602001828103825260268152602001806128f66026913960400191505060405180910390fd5b8073ffffffffffffffffffffffffffffffffffffffff1660008054906101000a900473ffffffffffffffffffffffffffffffffffffffff1673ffffffffffffffffffffffffffffffffffffffff167f8be0079c531659141344cd1fd0a4f28419497f9722a3daafe3b4186f6b6457e060405160405180910390a3806000806101000a81548173ffffffffffffffffffffffffffffffffffffffff021916908373ffffffffffffffffffffffffffffffffffffffff16021790555050565b611d27611fff565b73ffffffffffffffffffffffffffffffffffffffff1660008054906101000a900473ffffffffffffffffffffffffffffffffffffffff1673ffffffffffffffffffffffffffffffffffffffff1614611de7576040517f08c379a00000000000000000000000000000000000000000000000000000000081526004018080602001828103825260208152602001807f4f776e61626c653a2063616c6c6572206973206e6f7420746865206f776e657281525060200191505060405180910390fd5b60006005811115611df457fe5b600460009054906101000a900460ff166005811115611e0f57fe5b14611e1957600080fd5b600060405180608001604052806001151581526020018373ffffffffffffffffffffffffffffffffffffffff1681526020016000151581526020016000815250905080600260008473ffffffffffffffffffffffffffffffffffffffff1673ffffffffffffffffffffffffffffffffffffffff16815260200190815260200160002060008201518160000160006101000a81548160ff02191690831515021790555060208201518160000160016101000a81548173ffffffffffffffffffffffffffffffffffffffff021916908373ffffffffffffffffffffffffffffffffffffffff16021790555060408201518160000160156101000a81548160ff021916908315150217905550606082015181600101559050506001829080600181540180825580915050600190039060005260206000200160009091909190916101000a81548173ffffffffffffffffffffffffffffffffffffffff021916908373ffffffffffffffffffffffffffffffffffffffff1602179055506000601681819054906101000a900460ff168092919060010191906101000a81548160ff021916908360ff160217905550507fb6be2187d059cc2a55fe29e0e503b566e1e0f8c8780096e185429350acffd3dd82604051611ff391906124e7565b60405180910390a15050565b600033905090565b50805460018160011615610100020316600290046000825580601f1061202d575061204c565b601f01602090049060005260206000209081019061204b919061211e565b5b50565b828054600181600116156101000203166002900490600052602060002090601f01602090048101928261208557600085556120cc565b82601f1061209e57805160ff19168380011785556120cc565b828001600101855582156120cc579182015b828111156120cb5782518255916020019190600101906120b0565b5b5090506120d9919061211e565b5090565b6040518060800160405280600060ff168152602001600073ffffffffffffffffffffffffffffffffffffffff16815260200160608152602001600081525090565b5b8082111561213757600081600090555060010161211f565b5090565b600061214e61214984612706565b6126d5565b90508281526020810184848401111561216657600080fd5b61217184828561285e565b509392505050565b600081359050612188816128c7565b92915050565b600082601f83011261219f57600080fd5b81356121af84826020860161213b565b91505092915050565b6000813590506121c7816128de565b92915050565b6000602082840312156121df57600080fd5b60006121ed84828501612179565b91505092915050565b60006020828403121561220857600080fd5b600082013567ffffffffffffffff81111561222257600080fd5b61222e8482850161218e565b91505092915050565b60006020828403121561224957600080fd5b6000612257848285016121b8565b91505092915050565b600061226c8383612287565b60208301905092915050565b61228181612804565b82525050565b6122908161279c565b82525050565b61229f8161279c565b82525050565b60006122b082612746565b6122ba8185612769565b93506122c583612736565b8060005b838110156122f65781516122dd8882612260565b97506122e88361275c565b9250506001810190506122c9565b5085935050505092915050565b61230c816127ae565b82525050565b61231b81612816565b82525050565b600061232c82612751565b612336818561277a565b935061234681856020860161286d565b61234f816128a2565b840191505092915050565b600061236582612751565b61236f818561278b565b935061237f81856020860161286d565b612388816128a2565b840191505092915050565b60006123a060158361278b565b91507f766f746572206e6f742077686974656c697374656400000000000000000000006000830152602082019050919050565b60006123e060218361278b565b91507f50726f706f73616c732073657373696f6e20686173206e6f742073746172746560008301527f64000000000000000000000000000000000000000000000000000000000000006020830152604082019050919050565b600060808301600083015161245160008601826124c9565b5060208301516124646020860182612287565b506040830151848203604086015261247c8282612321565b9150506060830151612491606086018261249c565b508091505092915050565b6124a5816127ed565b82525050565b6124b4816127ed565b82525050565b6124c38161284c565b82525050565b6124d2816127f7565b82525050565b6124e1816127f7565b82525050565b60006020820190506124fc6000830184612296565b92915050565b60006040820190506125176000830185612278565b61252460208301846124ab565b9392505050565b6000602082019050818103600083015261254581846122a5565b905092915050565b60006080820190506125626000830187612303565b61256f6020830186612296565b61257c6040830185612303565b61258960608301846124ab565b95945050505050565b60006020820190506125a76000830184612312565b92915050565b60006040820190506125c26000830185612312565b6125cf6020830184612312565b9392505050565b600060208201905081810360008301526125ef81612393565b9050919050565b6000602082019050818103600083015261260f816123d3565b9050919050565b600060208201905081810360008301526126308184612439565b905092915050565b600060208201905061264d60008301846124ab565b92915050565b600060208201905061266860008301846124ba565b92915050565b600060208201905061268360008301846124d8565b92915050565b600060808201905061269e60008301876124d8565b6126ab6020830186612296565b81810360408301526126bd818561235a565b90506126cc60608301846124ab565b95945050505050565b6000604051905081810181811067ffffffffffffffff821117156126fc576126fb6128a0565b5b8060405250919050565b600067ffffffffffffffff821115612721576127206128a0565b5b601f19601f8301169050602081019050919050565b6000819050602082019050919050565b600081519050919050565b600081519050919050565b6000602082019050919050565b600082825260208201905092915050565b600082825260208201905092915050565b600082825260208201905092915050565b60006127a7826127cd565b9050919050565b60008115159050919050565b60008190506127c8826128b3565b919050565b600073ffffffffffffffffffffffffffffffffffffffff82169050919050565b6000819050919050565b600060ff82169050919050565b600061280f82612828565b9050919050565b6000612821826127ba565b9050919050565b60006128338261283a565b9050919050565b6000612845826127cd565b9050919050565b6000612857826127f7565b9050919050565b82818337600083830152505050565b60005b8381101561288b578082015181840152602081019050612870565b8381111561289a576000848401525b50505050565bfe5b6000601f19601f8301169050919050565b600681106128c4576128c36128a0565b5b50565b6128d08161279c565b81146128db57600080fd5b50565b6128e7816127ed565b81146128f257600080fd5b5056fe4f776e61626c653a206e6577206f776e657220697320746865207a65726f2061646472657373a2646970667358221220f3c684d49a5656748fcfdd5f16bd06c599fdd5fa2f4a7e1c87a7d3a5b5d6098464736f6c63430007060033",
  "immutableReferences": {},
  "source": "///SPDX-License-Identifier: GPL-3.0\r\npragma solidity ^0.7.4;\r\npragma experimental ABIEncoderV2;\r\n\r\n/* import contrat ownable*/\r\nimport \"./Ownable.sol\";\r\n\r\n/**\r\n * @title Voting\r\n   @author Sandy,Julien,Stphane\r\n   @notice Contrat de vote, getsion par un superadmin\r\n */\r\n\r\ncontract Voting is Ownable {\r\n    uint8 public winningProposalId;\r\n\r\n    //increment d'ids\r\n    uint8 public proposalIds;\r\n    uint8 public votersCount;\r\n\r\n    struct Voter {\r\n        bool isRegistered;\r\n        address _address;\r\n        bool hasVoted;\r\n        // voir l'utilit :\r\n        uint256 votedProposalId;\r\n    }\r\n\r\n    struct Proposal {\r\n        uint8 id;\r\n        address owner;\r\n        string description;\r\n        uint256 voteCount;\r\n    }\r\n\r\n    address[] voters;\r\n    mapping(address => Voter) public whiteList;\r\n    mapping(uint256 => Proposal) public proposals;\r\n\r\n    enum WorkflowStatus {\r\n        RegisteringVoters,\r\n        ProposalsRegistrationStarted,\r\n        ProposalsRegistrationEnded,\r\n        VotingSessionStarted,\r\n        VotingSessionEnded,\r\n        VotesTallied\r\n    }\r\n\r\n    WorkflowStatus public status;\r\n\r\n    ///@notice Events\r\n    event NewVotingSystem();\r\n    event VoterRegistered(address voterAddress);\r\n    event VoterRemoved(address _address);\r\n    event ProposalsRegistrationStarted();\r\n    event ProposalsRegistrationEnded();\r\n    \r\n    event ProposalRegistered(uint256 proposalId);\r\n    event ProposalRemoved(uint256 proposalId);\r\n    event VotingSessionStarted();\r\n    event VotingSessionEnded();\r\n    event Voted(address voter, uint256 proposalId);\r\n    event VotesTallied(uint8 _winningProposals);\r\n    event WorkflowStatusChange(\r\n        WorkflowStatus previousStatus,\r\n        WorkflowStatus newStatus\r\n    );\r\n\r\n    constructor() {\r\n        emit NewVotingSystem();\r\n    }\r\n\r\n    function getVoters() public view returns(address[] memory) {\r\n        return voters;\r\n    }\r\n\r\n    function getWinningProposal() public view returns (Proposal memory proposal){\r\n      //a voir en cas de plusieurs gagnnats boucle ->\r\n        return proposals[winningProposalId];\r\n    }\r\n\r\n    ///@param _address  ajouter  la whitelist\r\n    function addVoter(address _address) public onlyOwner {\r\n        require(status == WorkflowStatus.RegisteringVoters);\r\n        Voter memory newVoter = Voter(true, _address, false, 0);\r\n        whiteList[_address] = newVoter;\r\n        voters.push(_address);\r\n        votersCount++;\r\n        emit VoterRegistered(_address);\r\n    }\r\n\r\n    function deleteVoter(address _address) public onlyOwner {\r\n        delete whiteList[_address];\r\n        votersCount--;\r\n        emit VoterRemoved(_address);\r\n    }\r\n\r\n    function resetVotingSession() public onlyOwner   {\r\n        WorkflowStatus previous = status;\r\n        WorkflowStatus newStatus = WorkflowStatus.RegisteringVoters;\r\n        status = newStatus;\r\n        emit NewVotingSystem();\r\n        emit WorkflowStatusChange(previous, newStatus);\r\n    }\r\n\r\n\r\n    function startProposalRegistration() public onlyOwner   {\r\n        WorkflowStatus previous = status;\r\n        WorkflowStatus newStatus = WorkflowStatus.ProposalsRegistrationStarted;\r\n        status = newStatus;\r\n        emit ProposalsRegistrationStarted();\r\n        emit WorkflowStatusChange(previous, newStatus);\r\n    }\r\n\r\n    function endProposalRegistration() public onlyOwner {\r\n        WorkflowStatus previous = status;\r\n        WorkflowStatus newStatus = WorkflowStatus.ProposalsRegistrationEnded;\r\n        status = newStatus;\r\n        emit ProposalsRegistrationEnded();\r\n        emit WorkflowStatusChange(previous, newStatus);\r\n    }\r\n\r\n    function startVotingSession() public onlyOwner {\r\n        WorkflowStatus previous = status;\r\n        WorkflowStatus newStatus = WorkflowStatus.VotingSessionStarted;\r\n        status = newStatus;\r\n        emit VotingSessionStarted();\r\n        emit WorkflowStatusChange(previous, newStatus);\r\n    }\r\n\r\n    function endVotingSession() public onlyOwner {\r\n        WorkflowStatus previous = status;\r\n        WorkflowStatus newStatus = WorkflowStatus.VotingSessionEnded;\r\n        status = newStatus;\r\n        emit VotingSessionEnded();\r\n        emit WorkflowStatusChange(previous, newStatus);\r\n    }\r\n\r\n    ///@dev Verification de la prsence de l'address dans la whitelist\r\n    modifier whiteListed() {\r\n        require(whiteList[msg.sender].isRegistered == true, \"voter not whitelisted\");\r\n        _;\r\n    }\r\n\r\n    ///@param _description est le nom de la proposition\r\n    function addProposal(string memory _description) public whiteListed() {\r\n        //obligation d'tre dans le workflow correspondant\r\n        //deux propositions identiques sont possibles  voir...\r\n        require(status == WorkflowStatus.ProposalsRegistrationStarted, \"Proposals session has not started\");\r\n        Proposal memory newProposal =\r\n        Proposal(proposalIds, msg.sender, _description, 0);\r\n        proposals[proposalIds] = newProposal;\r\n        proposalIds++;\r\n        emit ProposalRegistered(proposalIds);\r\n    }\r\n\r\n    function deleteProposal(uint256 _id) public whiteListed {\r\n        require(proposals[_id].owner == msg.sender);\r\n        delete proposals[_id];\r\n        emit ProposalRemoved(_id);\r\n    }\r\n    //a voir si on fait function delete proposal aussi pour l'admin\r\n    function deleteProposalAdmin(uint256 _id) public onlyOwner {\r\n        delete proposals[_id];\r\n    }\r\n\r\n    function vote(uint256 _id) public whiteListed {\r\n        require(status == WorkflowStatus.VotingSessionStarted);\r\n        require(whiteList[msg.sender].hasVoted == false);\r\n        whiteList[msg.sender].hasVoted = true;\r\n        proposals[_id].voteCount++;\r\n        emit Voted(msg.sender, _id);\r\n    }\r\n\r\n    function count() public onlyOwner {\r\n        require(status == WorkflowStatus.VotingSessionEnded);\r\n        uint8 id;\r\n        uint256 highestCount;\r\n        for (uint256 i = 0; i <= proposalIds; i++) {\r\n            if (highestCount < proposals[i].voteCount) {\r\n                highestCount = proposals[i].voteCount;\r\n                id = proposals[i].id;\r\n            }\r\n\r\n        }\r\n        winningProposalId = id;\r\n        status = WorkflowStatus.VotesTallied;\r\n        emit VotesTallied(winningProposalId);   \r\n    }\r\n\r\n}\r\n",
  "sourcePath": "/Users/sandyinstructor/Documents/BLOCKCHAIN/Alyra/templates/truffle-voting-syst/contracts/Voting.sol",
  "compiler": {
    "name": "solc",
    "version": "0.7.6+commit.7338295f.Emscripten.clang"
  },
  "schemaVersion": "3.3.4",
  "updatedAt": "2021-03-13T23:34:12.963Z",
  "networkType": "ethereum",
  "devdoc": {
    "author": "Sandy,Julien,Stphane",
    "kind": "dev",
    "methods": {
      "addProposal(string)": {
        "params": {
          "_description": "est le nom de la proposition"
        }
      },
      "addVoter(address)": {
        "params": {
          "_address": " ajouter  la whitelist"
        }
      },
      "owner()": {
        "details": "Returns the address of the current owner."
      },
      "renounceOwnership()": {
        "details": "Leaves the contract without owner. It will not be possible to call `onlyOwner` functions anymore. Can only be called by the current owner. NOTE: Renouncing ownership will leave the contract without an owner, thereby removing any functionality that is only available to the owner."
      },
      "transferOwnership(address)": {
        "details": "Transfers ownership of the contract to a new account (`newOwner`). Can only be called by the current owner."
      }
    },
    "title": "Voting",
    "version": 1
  },
  "userdoc": {
    "events": {
      "NewVotingSystem()": {
        "notice": "Events"
      }
    },
    "kind": "user",
    "methods": {},
    "notice": "Contrat de vote, getsion par un superadmin",
    "version": 1
  }
}