{
  "contractName": "Voting",
  "abi": [
    {
      "inputs": [],
      "stateMutability": "nonpayable",
      "type": "constructor"
    },
    {
      "anonymous": false,
      "inputs": [],
      "name": "NewVotingSystem",
      "type": "event"
    },
    {
      "anonymous": false,
      "inputs": [
        {
          "indexed": true,
          "internalType": "address",
          "name": "previousOwner",
          "type": "address"
        },
        {
          "indexed": true,
          "internalType": "address",
          "name": "newOwner",
          "type": "address"
        }
      ],
      "name": "OwnershipTransferred",
      "type": "event"
    },
    {
      "anonymous": false,
      "inputs": [
        {
          "indexed": false,
          "internalType": "uint256",
          "name": "proposalId",
          "type": "uint256"
        }
      ],
      "name": "ProposalRegistered",
      "type": "event"
    },
    {
      "anonymous": false,
      "inputs": [],
      "name": "ProposalsRegistrationEnded",
      "type": "event"
    },
    {
      "anonymous": false,
      "inputs": [],
      "name": "ProposalsRegistrationStarted",
      "type": "event"
    },
    {
      "anonymous": false,
      "inputs": [
        {
          "indexed": false,
          "internalType": "address",
          "name": "voter",
          "type": "address"
        },
        {
          "indexed": false,
          "internalType": "uint256",
          "name": "proposalId",
          "type": "uint256"
        }
      ],
      "name": "Voted",
      "type": "event"
    },
    {
      "anonymous": false,
      "inputs": [
        {
          "indexed": false,
          "internalType": "address",
          "name": "voterAddress",
          "type": "address"
        }
      ],
      "name": "VoterRegistered",
      "type": "event"
    },
    {
      "anonymous": false,
      "inputs": [
        {
          "indexed": false,
          "internalType": "address",
          "name": "_address",
          "type": "address"
        }
      ],
      "name": "VoterRemoved",
      "type": "event"
    },
    {
      "anonymous": false,
      "inputs": [
        {
          "indexed": false,
          "internalType": "uint8",
          "name": "_winningProposals",
          "type": "uint8"
        }
      ],
      "name": "VotesTallied",
      "type": "event"
    },
    {
      "anonymous": false,
      "inputs": [],
      "name": "VotingSessionEnded",
      "type": "event"
    },
    {
      "anonymous": false,
      "inputs": [],
      "name": "VotingSessionStarted",
      "type": "event"
    },
    {
      "anonymous": false,
      "inputs": [
        {
          "indexed": false,
          "internalType": "enum Voting.WorkflowStatus",
          "name": "previousStatus",
          "type": "uint8"
        },
        {
          "indexed": false,
          "internalType": "enum Voting.WorkflowStatus",
          "name": "newStatus",
          "type": "uint8"
        }
      ],
      "name": "WorkflowStatusChange",
      "type": "event"
    },
    {
      "inputs": [],
      "name": "owner",
      "outputs": [
        {
          "internalType": "address",
          "name": "",
          "type": "address"
        }
      ],
      "stateMutability": "view",
      "type": "function",
      "constant": true
    },
    {
      "inputs": [],
      "name": "proposalIds",
      "outputs": [
        {
          "internalType": "uint8",
          "name": "",
          "type": "uint8"
        }
      ],
      "stateMutability": "view",
      "type": "function",
      "constant": true
    },
    {
      "inputs": [
        {
          "internalType": "uint256",
          "name": "",
          "type": "uint256"
        }
      ],
      "name": "proposals",
      "outputs": [
        {
          "internalType": "uint8",
          "name": "id",
          "type": "uint8"
        },
        {
          "internalType": "address",
          "name": "owner",
          "type": "address"
        },
        {
          "internalType": "string",
          "name": "description",
          "type": "string"
        },
        {
          "internalType": "uint256",
          "name": "voteCount",
          "type": "uint256"
        }
      ],
      "stateMutability": "view",
      "type": "function",
      "constant": true
    },
    {
      "inputs": [],
      "name": "renounceOwnership",
      "outputs": [],
      "stateMutability": "nonpayable",
      "type": "function"
    },
    {
      "inputs": [],
      "name": "status",
      "outputs": [
        {
          "internalType": "enum Voting.WorkflowStatus",
          "name": "",
          "type": "uint8"
        }
      ],
      "stateMutability": "view",
      "type": "function",
      "constant": true
    },
    {
      "inputs": [
        {
          "internalType": "address",
          "name": "newOwner",
          "type": "address"
        }
      ],
      "name": "transferOwnership",
      "outputs": [],
      "stateMutability": "nonpayable",
      "type": "function"
    },
    {
      "inputs": [],
      "name": "votersCount",
      "outputs": [
        {
          "internalType": "uint8",
          "name": "",
          "type": "uint8"
        }
      ],
      "stateMutability": "view",
      "type": "function",
      "constant": true
    },
    {
      "inputs": [
        {
          "internalType": "address",
          "name": "",
          "type": "address"
        }
      ],
      "name": "whiteList",
      "outputs": [
        {
          "internalType": "bool",
          "name": "isRegistered",
          "type": "bool"
        },
        {
          "internalType": "address",
          "name": "_address",
          "type": "address"
        },
        {
          "internalType": "bool",
          "name": "hasVoted",
          "type": "bool"
        },
        {
          "internalType": "uint256",
          "name": "votedProposalId",
          "type": "uint256"
        }
      ],
      "stateMutability": "view",
      "type": "function",
      "constant": true
    },
    {
      "inputs": [],
      "name": "winningProposalId",
      "outputs": [
        {
          "internalType": "uint8",
          "name": "",
          "type": "uint8"
        }
      ],
      "stateMutability": "view",
      "type": "function",
      "constant": true
    },
    {
      "inputs": [],
      "name": "getVoters",
      "outputs": [
        {
          "internalType": "address[]",
          "name": "",
          "type": "address[]"
        }
      ],
      "stateMutability": "view",
      "type": "function",
      "constant": true
    },
    {
      "inputs": [],
      "name": "getWinningProposal",
      "outputs": [
        {
          "components": [
            {
              "internalType": "uint8",
              "name": "id",
              "type": "uint8"
            },
            {
              "internalType": "address",
              "name": "owner",
              "type": "address"
            },
            {
              "internalType": "string",
              "name": "description",
              "type": "string"
            },
            {
              "internalType": "uint256",
              "name": "voteCount",
              "type": "uint256"
            }
          ],
          "internalType": "struct Voting.Proposal",
          "name": "proposal",
          "type": "tuple"
        }
      ],
      "stateMutability": "view",
      "type": "function",
      "constant": true
    },
    {
      "inputs": [
        {
          "internalType": "address",
          "name": "_address",
          "type": "address"
        }
      ],
      "name": "addVoter",
      "outputs": [],
      "stateMutability": "nonpayable",
      "type": "function"
    },
    {
      "inputs": [
        {
          "internalType": "address",
          "name": "_address",
          "type": "address"
        }
      ],
      "name": "deleteVoter",
      "outputs": [],
      "stateMutability": "nonpayable",
      "type": "function"
    },
    {
      "inputs": [],
      "name": "resetVotingSession",
      "outputs": [],
      "stateMutability": "nonpayable",
      "type": "function"
    },
    {
      "inputs": [],
      "name": "startProposalRegistration",
      "outputs": [],
      "stateMutability": "nonpayable",
      "type": "function"
    },
    {
      "inputs": [],
      "name": "endProposalRegistration",
      "outputs": [],
      "stateMutability": "nonpayable",
      "type": "function"
    },
    {
      "inputs": [],
      "name": "startVotingSession",
      "outputs": [],
      "stateMutability": "nonpayable",
      "type": "function"
    },
    {
      "inputs": [],
      "name": "endVotingSession",
      "outputs": [],
      "stateMutability": "nonpayable",
      "type": "function"
    },
    {
      "inputs": [
        {
          "internalType": "string",
          "name": "_description",
          "type": "string"
        }
      ],
      "name": "addProposal",
      "outputs": [],
      "stateMutability": "nonpayable",
      "type": "function"
    },
    {
      "inputs": [
        {
          "internalType": "uint256",
          "name": "_id",
          "type": "uint256"
        }
      ],
      "name": "deleteProposal",
      "outputs": [],
      "stateMutability": "nonpayable",
      "type": "function"
    },
    {
      "inputs": [
        {
          "internalType": "uint256",
          "name": "_id",
          "type": "uint256"
        }
      ],
      "name": "deleteProposalAdmin",
      "outputs": [],
      "stateMutability": "nonpayable",
      "type": "function"
    },
    {
      "inputs": [
        {
          "internalType": "uint256",
          "name": "_id",
          "type": "uint256"
        }
      ],
      "name": "vote",
      "outputs": [],
      "stateMutability": "nonpayable",
      "type": "function"
    },
    {
      "inputs": [],
      "name": "count",
      "outputs": [],
      "stateMutability": "nonpayable",
      "type": "function"
    }
  ],
  "bytecode": "0x608060405234801561001057600080fd5b5060006100216100f060201b60201c565b9050806000806101000a81548173ffffffffffffffffffffffffffffffffffffffff021916908373ffffffffffffffffffffffffffffffffffffffff1602179055508073ffffffffffffffffffffffffffffffffffffffff16600073ffffffffffffffffffffffffffffffffffffffff167f8be0079c531659141344cd1fd0a4f28419497f9722a3daafe3b4186f6b6457e060405160405180910390a3507f28c5e727295d809da653948416bdc4fe30913878a5f1332ded39bc4730d10c5660405160405180910390a16100f8565b600033905090565b6128cc806101076000396000f3fe608060405234801561001057600080fd5b506004361061014d5760003560e01c80638259d553116100c3578063c64963c51161007c578063c64963c51461030c578063cdd722531461032a578063e85a8f2a14610348578063ee74c67814610352578063f2fde38b1461035c578063f4ab9adf146103785761014d565b80638259d5531461027057806388e1c7391461028c5780638da5cb5b146102a857806398c07938146102c6578063a5134620146102e4578063a7bfab16146103025761014d565b80632d5de3c9116101155780632d5de3c9146101d35780632fdae3c5146101ef578063372c12b11461020b5780633d5af2ed1461023e57806348d82c661461025c578063715018a6146102665761014d565b80630121b93f14610152578063013cf08b1461016e57806306661abd146101a15780630f7e2838146101ab578063200d2ed2146101b5575b600080fd5b61016c600480360381019061016791906121cd565b610394565b005b610188600480360381019061018391906121cd565b610579565b6040516101989493929190612604565b60405180910390f35b6101a961066e565b005b6101b361087c565b005b6101bd6109ea565b6040516101ca9190612528565b60405180910390f35b6101ed60048036038101906101e891906121cd565b6109fd565b005b6102096004803603810190610204919061218c565b610b31565b005b61022560048036038101906102209190612163565b610db0565b60405161023594939291906124e3565b60405180910390f35b610246610e1a565b60405161025391906125e9565b60405180910390f35b610264610e2d565b005b61026e610f97565b005b61028a600480360381019061028591906121cd565b61111d565b005b6102a660048036038101906102a19190612163565b61128d565b005b6102b0611428565b6040516102bd919061247d565b60405180910390f35b6102ce611451565b6040516102db91906125e9565b60405180910390f35b6102ec611464565b6040516102f991906125ac565b60405180910390f35b61030a6115bf565b005b61031461172d565b60405161032191906125e9565b60405180910390f35b610332611740565b60405161033f91906124c1565b60405180910390f35b6103506117ce565b005b61035a61193c565b005b61037660048036038101906103719190612163565b611aaa565b005b610392600480360381019061038d9190612163565b611cb5565b005b60011515600260003373ffffffffffffffffffffffffffffffffffffffff1673ffffffffffffffffffffffffffffffffffffffff16815260200190815260200160002060000160009054906101000a900460ff1615151461042a576040517f08c379a00000000000000000000000000000000000000000000000000000000081526004016104219061256c565b60405180910390fd5b6003600581111561043757fe5b600460009054906101000a900460ff16600581111561045257fe5b1461045c57600080fd5b60001515600260003373ffffffffffffffffffffffffffffffffffffffff1673ffffffffffffffffffffffffffffffffffffffff16815260200190815260200160002060000160159054906101000a900460ff161515146104bc57600080fd5b6001600260003373ffffffffffffffffffffffffffffffffffffffff1673ffffffffffffffffffffffffffffffffffffffff16815260200190815260200160002060000160156101000a81548160ff02191690831515021790555060036000828152602001908152602001600020600201600081548092919060010191905055507f4d99b957a2bc29a30ebd96a7be8e68fe50a3c701db28a91436490b7d53870ca4338260405161056e929190612498565b60405180910390a150565b60036020528060005260406000206000915090508060000160009054906101000a900460ff16908060000160019054906101000a900473ffffffffffffffffffffffffffffffffffffffff1690806001018054600181600116156101000203166002900480601f01602080910402602001604051908101604052809291908181526020018280546001816001161561010002031660029004801561065e5780601f106106335761010080835404028352916020019161065e565b820191906000526020600020905b81548152906001019060200180831161064157829003601f168201915b5050505050908060020154905084565b610676611f95565b73ffffffffffffffffffffffffffffffffffffffff1660008054906101000a900473ffffffffffffffffffffffffffffffffffffffff1673ffffffffffffffffffffffffffffffffffffffff1614610736576040517f08c379a00000000000000000000000000000000000000000000000000000000081526004018080602001828103825260208152602001807f4f776e61626c653a2063616c6c6572206973206e6f7420746865206f776e657281525060200191505060405180910390fd5b6004600581111561074357fe5b600460009054906101000a900460ff16600581111561075e57fe5b1461076857600080fd5b60008060005b600060159054906101000a900460ff1660ff1681116107f25760036000828152602001908152602001600020600201548210156107e557600360008281526020019081526020016000206002015491506003600082815260200190815260200160002060000160009054906101000a900460ff1692505b808060010191505061076e565b5081600060146101000a81548160ff021916908360ff1602179055506005600460006101000a81548160ff0219169083600581111561082d57fe5b02179055507f7c75ab0a0bf35a72ab671eb9c501a330c5572c09ecdc660fcf5564e5abaf0107600060149054906101000a900460ff1660405161087091906125e9565b60405180910390a15050565b610884611f95565b73ffffffffffffffffffffffffffffffffffffffff1660008054906101000a900473ffffffffffffffffffffffffffffffffffffffff1673ffffffffffffffffffffffffffffffffffffffff1614610944576040517f08c379a00000000000000000000000000000000000000000000000000000000081526004018080602001828103825260208152602001807f4f776e61626c653a2063616c6c6572206973206e6f7420746865206f776e657281525060200191505060405180910390fd5b6000600460009054906101000a900460ff16905060006001905080600460006101000a81548160ff0219169083600581111561097c57fe5b02179055507f344c25562921d075a298d34b6dd1fd00d36ff293974539dfd4a8c625d9f0064c60405160405180910390a17f0a97a4ee45751e2abf3e4fc8946939630b11b371ea8ae39ccdc3056e98f5cc3f82826040516109de929190612543565b60405180910390a15050565b600460009054906101000a900460ff1681565b610a05611f95565b73ffffffffffffffffffffffffffffffffffffffff1660008054906101000a900473ffffffffffffffffffffffffffffffffffffffff1673ffffffffffffffffffffffffffffffffffffffff1614610ac5576040517f08c379a00000000000000000000000000000000000000000000000000000000081526004018080602001828103825260208152602001807f4f776e61626c653a2063616c6c6572206973206e6f7420746865206f776e657281525060200191505060405180910390fd5b60036000828152602001908152602001600020600080820160006101000a81549060ff02191690556000820160016101000a81549073ffffffffffffffffffffffffffffffffffffffff0219169055600182016000610b249190611f9d565b6002820160009055505050565b60011515600260003373ffffffffffffffffffffffffffffffffffffffff1673ffffffffffffffffffffffffffffffffffffffff16815260200190815260200160002060000160009054906101000a900460ff16151514610bc7576040517f08c379a0000000000000000000000000000000000000000000000000000000008152600401610bbe9061256c565b60405180910390fd5b60016005811115610bd457fe5b600460009054906101000a900460ff166005811115610bef57fe5b14610c2f576040517f08c379a0000000000000000000000000000000000000000000000000000000008152600401610c269061258c565b60405180910390fd5b60006040518060800160405280600060159054906101000a900460ff1660ff1681526020013373ffffffffffffffffffffffffffffffffffffffff1681526020018381526020016000815250905080600360008060159054906101000a900460ff1660ff16815260200190815260200160002060008201518160000160006101000a81548160ff021916908360ff16021790555060208201518160000160016101000a81548173ffffffffffffffffffffffffffffffffffffffff021916908373ffffffffffffffffffffffffffffffffffffffff1602179055506040820151816001019080519060200190610d26929190611fe5565b50606082015181600201559050506000601581819054906101000a900460ff168092919060010191906101000a81548160ff021916908360ff160217905550507f92e393e9b54e2f801d3ea4beb0c5e71a21cc34a5d34b77d0fb8a3aa1650dc18f600060159054906101000a900460ff16604051610da491906125ce565b60405180910390a15050565b60026020528060005260406000206000915090508060000160009054906101000a900460ff16908060000160019054906101000a900473ffffffffffffffffffffffffffffffffffffffff16908060000160159054906101000a900460ff16908060010154905084565b600060159054906101000a900460ff1681565b610e35611f95565b73ffffffffffffffffffffffffffffffffffffffff1660008054906101000a900473ffffffffffffffffffffffffffffffffffffffff1673ffffffffffffffffffffffffffffffffffffffff1614610ef5576040517f08c379a00000000000000000000000000000000000000000000000000000000081526004018080602001828103825260208152602001807f4f776e61626c653a2063616c6c6572206973206e6f7420746865206f776e657281525060200191505060405180910390fd5b6000600460009054906101000a900460ff169050600080600460006101000a81548160ff02191690836005811115610f2957fe5b02179055507f28c5e727295d809da653948416bdc4fe30913878a5f1332ded39bc4730d10c5660405160405180910390a17f0a97a4ee45751e2abf3e4fc8946939630b11b371ea8ae39ccdc3056e98f5cc3f8282604051610f8b929190612543565b60405180910390a15050565b610f9f611f95565b73ffffffffffffffffffffffffffffffffffffffff1660008054906101000a900473ffffffffffffffffffffffffffffffffffffffff1673ffffffffffffffffffffffffffffffffffffffff161461105f576040517f08c379a00000000000000000000000000000000000000000000000000000000081526004018080602001828103825260208152602001807f4f776e61626c653a2063616c6c6572206973206e6f7420746865206f776e657281525060200191505060405180910390fd5b600073ffffffffffffffffffffffffffffffffffffffff1660008054906101000a900473ffffffffffffffffffffffffffffffffffffffff1673ffffffffffffffffffffffffffffffffffffffff167f8be0079c531659141344cd1fd0a4f28419497f9722a3daafe3b4186f6b6457e060405160405180910390a360008060006101000a81548173ffffffffffffffffffffffffffffffffffffffff021916908373ffffffffffffffffffffffffffffffffffffffff160217905550565b60011515600260003373ffffffffffffffffffffffffffffffffffffffff1673ffffffffffffffffffffffffffffffffffffffff16815260200190815260200160002060000160009054906101000a900460ff161515146111b3576040517f08c379a00000000000000000000000000000000000000000000000000000000081526004016111aa9061256c565b60405180910390fd5b3373ffffffffffffffffffffffffffffffffffffffff166003600083815260200190815260200160002060000160019054906101000a900473ffffffffffffffffffffffffffffffffffffffff1673ffffffffffffffffffffffffffffffffffffffff161461122157600080fd5b60036000828152602001908152602001600020600080820160006101000a81549060ff02191690556000820160016101000a81549073ffffffffffffffffffffffffffffffffffffffff02191690556001820160006112809190611f9d565b6002820160009055505050565b611295611f95565b73ffffffffffffffffffffffffffffffffffffffff1660008054906101000a900473ffffffffffffffffffffffffffffffffffffffff1673ffffffffffffffffffffffffffffffffffffffff1614611355576040517f08c379a00000000000000000000000000000000000000000000000000000000081526004018080602001828103825260208152602001807f4f776e61626c653a2063616c6c6572206973206e6f7420746865206f776e657281525060200191505060405180910390fd5b600260008273ffffffffffffffffffffffffffffffffffffffff1673ffffffffffffffffffffffffffffffffffffffff168152602001908152602001600020600080820160006101000a81549060ff02191690556000820160016101000a81549073ffffffffffffffffffffffffffffffffffffffff02191690556000820160156101000a81549060ff0219169055600182016000905550507fa14a79af012d1756818f9bd59ccfc9ad185a71df86b9392d9059d9e6faf6d6448160405161141d919061247d565b60405180910390a150565b60008060009054906101000a900473ffffffffffffffffffffffffffffffffffffffff16905090565b600060169054906101000a900460ff1681565b61146c612073565b600360008060149054906101000a900460ff1660ff1681526020019081526020016000206040518060800160405290816000820160009054906101000a900460ff1660ff1660ff1681526020016000820160019054906101000a900473ffffffffffffffffffffffffffffffffffffffff1673ffffffffffffffffffffffffffffffffffffffff1673ffffffffffffffffffffffffffffffffffffffff168152602001600182018054600181600116156101000203166002900480601f0160208091040260200160405190810160405280929190818152602001828054600181600116156101000203166002900480156115a75780601f1061157c576101008083540402835291602001916115a7565b820191906000526020600020905b81548152906001019060200180831161158a57829003601f168201915b50505050508152602001600282015481525050905090565b6115c7611f95565b73ffffffffffffffffffffffffffffffffffffffff1660008054906101000a900473ffffffffffffffffffffffffffffffffffffffff1673ffffffffffffffffffffffffffffffffffffffff1614611687576040517f08c379a00000000000000000000000000000000000000000000000000000000081526004018080602001828103825260208152602001807f4f776e61626c653a2063616c6c6572206973206e6f7420746865206f776e657281525060200191505060405180910390fd5b6000600460009054906101000a900460ff16905060006004905080600460006101000a81548160ff021916908360058111156116bf57fe5b02179055507fc379d349a6301baf50fb2f98d829f4ae10b1cdb7c66f4e4d8117302df7b8cd4c60405160405180910390a17f0a97a4ee45751e2abf3e4fc8946939630b11b371ea8ae39ccdc3056e98f5cc3f8282604051611721929190612543565b60405180910390a15050565b600060149054906101000a900460ff1681565b606060018054806020026020016040519081016040528092919081815260200182805480156117c457602002820191906000526020600020905b8160009054906101000a900473ffffffffffffffffffffffffffffffffffffffff1673ffffffffffffffffffffffffffffffffffffffff168152602001906001019080831161177a575b5050505050905090565b6117d6611f95565b73ffffffffffffffffffffffffffffffffffffffff1660008054906101000a900473ffffffffffffffffffffffffffffffffffffffff1673ffffffffffffffffffffffffffffffffffffffff1614611896576040517f08c379a00000000000000000000000000000000000000000000000000000000081526004018080602001828103825260208152602001807f4f776e61626c653a2063616c6c6572206973206e6f7420746865206f776e657281525060200191505060405180910390fd5b6000600460009054906101000a900460ff16905060006002905080600460006101000a81548160ff021916908360058111156118ce57fe5b02179055507f240cb87b2e4df4c318e72bd714d45a9cad60249e883ff56b1fffd83a4595a8fa60405160405180910390a17f0a97a4ee45751e2abf3e4fc8946939630b11b371ea8ae39ccdc3056e98f5cc3f8282604051611930929190612543565b60405180910390a15050565b611944611f95565b73ffffffffffffffffffffffffffffffffffffffff1660008054906101000a900473ffffffffffffffffffffffffffffffffffffffff1673ffffffffffffffffffffffffffffffffffffffff1614611a04576040517f08c379a00000000000000000000000000000000000000000000000000000000081526004018080602001828103825260208152602001807f4f776e61626c653a2063616c6c6572206973206e6f7420746865206f776e657281525060200191505060405180910390fd5b6000600460009054906101000a900460ff16905060006003905080600460006101000a81548160ff02191690836005811115611a3c57fe5b02179055507f1b8e19a458c1bcd88553332c518cc5c4e2d5793e712ee766d4f1c14f672ef1f560405160405180910390a17f0a97a4ee45751e2abf3e4fc8946939630b11b371ea8ae39ccdc3056e98f5cc3f8282604051611a9e929190612543565b60405180910390a15050565b611ab2611f95565b73ffffffffffffffffffffffffffffffffffffffff1660008054906101000a900473ffffffffffffffffffffffffffffffffffffffff1673ffffffffffffffffffffffffffffffffffffffff1614611b72576040517f08c379a00000000000000000000000000000000000000000000000000000000081526004018080602001828103825260208152602001807f4f776e61626c653a2063616c6c6572206973206e6f7420746865206f776e657281525060200191505060405180910390fd5b600073ffffffffffffffffffffffffffffffffffffffff168173ffffffffffffffffffffffffffffffffffffffff161415611bf8576040517f08c379a00000000000000000000000000000000000000000000000000000000081526004018080602001828103825260268152602001806128716026913960400191505060405180910390fd5b8073ffffffffffffffffffffffffffffffffffffffff1660008054906101000a900473ffffffffffffffffffffffffffffffffffffffff1673ffffffffffffffffffffffffffffffffffffffff167f8be0079c531659141344cd1fd0a4f28419497f9722a3daafe3b4186f6b6457e060405160405180910390a3806000806101000a81548173ffffffffffffffffffffffffffffffffffffffff021916908373ffffffffffffffffffffffffffffffffffffffff16021790555050565b611cbd611f95565b73ffffffffffffffffffffffffffffffffffffffff1660008054906101000a900473ffffffffffffffffffffffffffffffffffffffff1673ffffffffffffffffffffffffffffffffffffffff1614611d7d576040517f08c379a00000000000000000000000000000000000000000000000000000000081526004018080602001828103825260208152602001807f4f776e61626c653a2063616c6c6572206973206e6f7420746865206f776e657281525060200191505060405180910390fd5b60006005811115611d8a57fe5b600460009054906101000a900460ff166005811115611da557fe5b14611daf57600080fd5b600060405180608001604052806001151581526020018373ffffffffffffffffffffffffffffffffffffffff1681526020016000151581526020016000815250905080600260008473ffffffffffffffffffffffffffffffffffffffff1673ffffffffffffffffffffffffffffffffffffffff16815260200190815260200160002060008201518160000160006101000a81548160ff02191690831515021790555060208201518160000160016101000a81548173ffffffffffffffffffffffffffffffffffffffff021916908373ffffffffffffffffffffffffffffffffffffffff16021790555060408201518160000160156101000a81548160ff021916908315150217905550606082015181600101559050506001829080600181540180825580915050600190039060005260206000200160009091909190916101000a81548173ffffffffffffffffffffffffffffffffffffffff021916908373ffffffffffffffffffffffffffffffffffffffff1602179055506000601681819054906101000a900460ff168092919060010191906101000a81548160ff021916908360ff160217905550507fb6be2187d059cc2a55fe29e0e503b566e1e0f8c8780096e185429350acffd3dd82604051611f89919061247d565b60405180910390a15050565b600033905090565b50805460018160011615610100020316600290046000825580601f10611fc35750611fe2565b601f016020900490600052602060002090810190611fe191906120b4565b5b50565b828054600181600116156101000203166002900490600052602060002090601f01602090048101928261201b5760008555612062565b82601f1061203457805160ff1916838001178555612062565b82800160010185558215612062579182015b82811115612061578251825591602001919060010190612046565b5b50905061206f91906120b4565b5090565b6040518060800160405280600060ff168152602001600073ffffffffffffffffffffffffffffffffffffffff16815260200160608152602001600081525090565b5b808211156120cd5760008160009055506001016120b5565b5090565b60006120e46120df84612681565b612650565b9050828152602081018484840111156120fc57600080fd5b6121078482856127d9565b509392505050565b60008135905061211e81612842565b92915050565b600082601f83011261213557600080fd5b81356121458482602086016120d1565b91505092915050565b60008135905061215d81612859565b92915050565b60006020828403121561217557600080fd5b60006121838482850161210f565b91505092915050565b60006020828403121561219e57600080fd5b600082013567ffffffffffffffff8111156121b857600080fd5b6121c484828501612124565b91505092915050565b6000602082840312156121df57600080fd5b60006121ed8482850161214e565b91505092915050565b6000612202838361221d565b60208301905092915050565b6122178161277f565b82525050565b61222681612717565b82525050565b61223581612717565b82525050565b6000612246826126c1565b61225081856126e4565b935061225b836126b1565b8060005b8381101561228c57815161227388826121f6565b975061227e836126d7565b92505060018101905061225f565b5085935050505092915050565b6122a281612729565b82525050565b6122b181612791565b82525050565b60006122c2826126cc565b6122cc81856126f5565b93506122dc8185602086016127e8565b6122e58161281d565b840191505092915050565b60006122fb826126cc565b6123058185612706565b93506123158185602086016127e8565b61231e8161281d565b840191505092915050565b6000612336601583612706565b91507f766f746572206e6f742077686974656c697374656400000000000000000000006000830152602082019050919050565b6000612376602183612706565b91507f50726f706f73616c732073657373696f6e20686173206e6f742073746172746560008301527f64000000000000000000000000000000000000000000000000000000000000006020830152604082019050919050565b60006080830160008301516123e7600086018261245f565b5060208301516123fa602086018261221d565b506040830151848203604086015261241282826122b7565b91505060608301516124276060860182612432565b508091505092915050565b61243b81612768565b82525050565b61244a81612768565b82525050565b612459816127c7565b82525050565b61246881612772565b82525050565b61247781612772565b82525050565b6000602082019050612492600083018461222c565b92915050565b60006040820190506124ad600083018561220e565b6124ba6020830184612441565b9392505050565b600060208201905081810360008301526124db818461223b565b905092915050565b60006080820190506124f86000830187612299565b612505602083018661222c565b6125126040830185612299565b61251f6060830184612441565b95945050505050565b600060208201905061253d60008301846122a8565b92915050565b600060408201905061255860008301856122a8565b61256560208301846122a8565b9392505050565b6000602082019050818103600083015261258581612329565b9050919050565b600060208201905081810360008301526125a581612369565b9050919050565b600060208201905081810360008301526125c681846123cf565b905092915050565b60006020820190506125e36000830184612450565b92915050565b60006020820190506125fe600083018461246e565b92915050565b6000608082019050612619600083018761246e565b612626602083018661222c565b818103604083015261263881856122f0565b90506126476060830184612441565b95945050505050565b6000604051905081810181811067ffffffffffffffff821117156126775761267661281b565b5b8060405250919050565b600067ffffffffffffffff82111561269c5761269b61281b565b5b601f19601f8301169050602081019050919050565b6000819050602082019050919050565b600081519050919050565b600081519050919050565b6000602082019050919050565b600082825260208201905092915050565b600082825260208201905092915050565b600082825260208201905092915050565b600061272282612748565b9050919050565b60008115159050919050565b60008190506127438261282e565b919050565b600073ffffffffffffffffffffffffffffffffffffffff82169050919050565b6000819050919050565b600060ff82169050919050565b600061278a826127a3565b9050919050565b600061279c82612735565b9050919050565b60006127ae826127b5565b9050919050565b60006127c082612748565b9050919050565b60006127d282612772565b9050919050565b82818337600083830152505050565b60005b838110156128065780820151818401526020810190506127eb565b83811115612815576000848401525b50505050565bfe5b6000601f19601f8301169050919050565b6006811061283f5761283e61281b565b5b50565b61284b81612717565b811461285657600080fd5b50565b61286281612768565b811461286d57600080fd5b5056fe4f776e61626c653a206e6577206f776e657220697320746865207a65726f2061646472657373a2646970667358221220a7a44b8ae47cb1c42c2b14eb7714a1f99bb871b62799dd3680592e7469ddd15564736f6c63430007060033",
  "immutableReferences": {},
  "source": "///SPDX-License-Identifier: GPL-3.0\r\npragma solidity ^0.7.4;\r\npragma experimental ABIEncoderV2;\r\n\r\n/* import contrat ownable*/\r\nimport \"./Ownable.sol\";\r\n\r\n/**\r\n * @title Voting\r\n   @author Sandy,Julien,Stphane\r\n   @notice Contrat de vote, getsion par un superadmin\r\n */\r\n\r\ncontract Voting is Ownable {\r\n    uint8 public winningProposalId;\r\n\r\n    //increment d'ids\r\n    uint8 public proposalIds;\r\n    uint8 public votersCount;\r\n\r\n    struct Voter {\r\n        bool isRegistered;\r\n        address _address;\r\n        bool hasVoted;\r\n        // voir l'utilit :\r\n        uint256 votedProposalId;\r\n    }\r\n\r\n    struct Proposal {\r\n        uint8 id;\r\n        address owner;\r\n        string description;\r\n        uint256 voteCount;\r\n    }\r\n\r\n    address[] voters;\r\n    mapping(address => Voter) public whiteList;\r\n    mapping(uint256 => Proposal) public proposals;\r\n\r\n    enum WorkflowStatus {\r\n        RegisteringVoters,\r\n        ProposalsRegistrationStarted,\r\n        ProposalsRegistrationEnded,\r\n        VotingSessionStarted,\r\n        VotingSessionEnded,\r\n        VotesTallied\r\n    }\r\n\r\n    WorkflowStatus public status;\r\n\r\n    ///@notice Events\r\n    event NewVotingSystem();\r\n    event VoterRegistered(address voterAddress);\r\n    event VoterRemoved(address _address);\r\n    event ProposalsRegistrationStarted();\r\n    event ProposalsRegistrationEnded();\r\n    event ProposalRegistered(uint256 proposalId);\r\n    event VotingSessionStarted();\r\n    event VotingSessionEnded();\r\n    event Voted(address voter, uint256 proposalId);\r\n    event VotesTallied(uint8 _winningProposals);\r\n    event WorkflowStatusChange(\r\n        WorkflowStatus previousStatus,\r\n        WorkflowStatus newStatus\r\n    );\r\n\r\n    constructor() {\r\n        emit NewVotingSystem();\r\n    }\r\n\r\n    function getVoters() public view returns(address[] memory) {\r\n        return voters;\r\n    }\r\n\r\n    function getWinningProposal() public view returns (Proposal memory proposal){\r\n      //a voir en cas de plusieurs gagnnats boucle ->\r\n        return proposals[winningProposalId];\r\n    }\r\n\r\n    ///@param _address  ajouter  la whitelist\r\n    function addVoter(address _address) public onlyOwner {\r\n        require(status == WorkflowStatus.RegisteringVoters);\r\n        Voter memory newVoter = Voter(true, _address, false, 0);\r\n        whiteList[_address] = newVoter;\r\n        voters.push(_address);\r\n        votersCount++;\r\n        emit VoterRegistered(_address);\r\n    }\r\n\r\n    function deleteVoter(address _address) public onlyOwner {\r\n        delete whiteList[_address];\r\n        emit VoterRemoved(_address);\r\n    }\r\n\r\n    function resetVotingSession() public onlyOwner   {\r\n        WorkflowStatus previous = status;\r\n        WorkflowStatus newStatus = WorkflowStatus.RegisteringVoters;\r\n        status = newStatus;\r\n        emit NewVotingSystem();\r\n        emit WorkflowStatusChange(previous, newStatus);\r\n    }\r\n\r\n\r\n    function startProposalRegistration() public onlyOwner   {\r\n        WorkflowStatus previous = status;\r\n        WorkflowStatus newStatus = WorkflowStatus.ProposalsRegistrationStarted;\r\n        status = newStatus;\r\n        emit ProposalsRegistrationStarted();\r\n        emit WorkflowStatusChange(previous, newStatus);\r\n    }\r\n\r\n    function endProposalRegistration() public onlyOwner {\r\n        WorkflowStatus previous = status;\r\n        WorkflowStatus newStatus = WorkflowStatus.ProposalsRegistrationEnded;\r\n        status = newStatus;\r\n        emit ProposalsRegistrationEnded();\r\n        emit WorkflowStatusChange(previous, newStatus);\r\n    }\r\n\r\n    function startVotingSession() public onlyOwner {\r\n        WorkflowStatus previous = status;\r\n        WorkflowStatus newStatus = WorkflowStatus.VotingSessionStarted;\r\n        status = newStatus;\r\n        emit VotingSessionStarted();\r\n        emit WorkflowStatusChange(previous, newStatus);\r\n    }\r\n\r\n    function endVotingSession() public onlyOwner {\r\n        WorkflowStatus previous = status;\r\n        WorkflowStatus newStatus = WorkflowStatus.VotingSessionEnded;\r\n        status = newStatus;\r\n        emit VotingSessionEnded();\r\n        emit WorkflowStatusChange(previous, newStatus);\r\n    }\r\n\r\n    ///@dev Verification de la prsence de l'address dans la whitelist\r\n    modifier whiteListed() {\r\n        require(whiteList[msg.sender].isRegistered == true, \"voter not whitelisted\");\r\n        _;\r\n    }\r\n\r\n    ///@param _description est le nom de la proposition\r\n    function addProposal(string memory _description) public whiteListed() {\r\n        //obligation d'tre dans le workflow correspondant\r\n        //deux propositions identiques sont possibles  voir...\r\n        require(status == WorkflowStatus.ProposalsRegistrationStarted, \"Proposals session has not started\");\r\n        Proposal memory newProposal =\r\n        Proposal(proposalIds, msg.sender, _description, 0);\r\n        proposals[proposalIds] = newProposal;\r\n        proposalIds++;\r\n        emit ProposalRegistered(proposalIds);\r\n    }\r\n\r\n    function deleteProposal(uint256 _id) public whiteListed {\r\n        require(proposals[_id].owner == msg.sender);\r\n        delete proposals[_id];\r\n    }\r\n    //a voir si on fait function delete proposal aussi pour l'admin\r\n    function deleteProposalAdmin(uint256 _id) public onlyOwner {\r\n        delete proposals[_id];\r\n    }\r\n\r\n    function vote(uint256 _id) public whiteListed {\r\n        require(status == WorkflowStatus.VotingSessionStarted);\r\n        require(whiteList[msg.sender].hasVoted == false);\r\n        whiteList[msg.sender].hasVoted = true;\r\n        proposals[_id].voteCount++;\r\n        emit Voted(msg.sender, _id);\r\n    }\r\n\r\n    function count() public onlyOwner {\r\n        require(status == WorkflowStatus.VotingSessionEnded);\r\n        uint8 id;\r\n        uint256 highestCount;\r\n        for (uint256 i = 0; i <= proposalIds; i++) {\r\n            if (highestCount < proposals[i].voteCount) {\r\n                highestCount = proposals[i].voteCount;\r\n                id = proposals[i].id;\r\n            }\r\n\r\n        }\r\n        winningProposalId = id;\r\n        status = WorkflowStatus.VotesTallied;\r\n        emit VotesTallied(winningProposalId);   \r\n    }\r\n\r\n}\r\n",
  "sourcePath": "/Users/sandyinstructor/Documents/BLOCKCHAIN/Alyra/templates/truffle-voting-syst/contracts/Voting.sol",
  "compiler": {
    "name": "solc",
    "version": "0.7.6+commit.7338295f.Emscripten.clang"
  },
  "schemaVersion": "3.3.4",
  "updatedAt": "2021-03-13T03:52:10.656Z",
  "networkType": "ethereum",
  "devdoc": {
    "author": "Sandy,Julien,Stphane",
    "kind": "dev",
    "methods": {
      "addProposal(string)": {
        "params": {
          "_description": "est le nom de la proposition"
        }
      },
      "addVoter(address)": {
        "params": {
          "_address": " ajouter  la whitelist"
        }
      },
      "owner()": {
        "details": "Returns the address of the current owner."
      },
      "renounceOwnership()": {
        "details": "Leaves the contract without owner. It will not be possible to call `onlyOwner` functions anymore. Can only be called by the current owner. NOTE: Renouncing ownership will leave the contract without an owner, thereby removing any functionality that is only available to the owner."
      },
      "transferOwnership(address)": {
        "details": "Transfers ownership of the contract to a new account (`newOwner`). Can only be called by the current owner."
      }
    },
    "title": "Voting",
    "version": 1
  },
  "userdoc": {
    "events": {
      "NewVotingSystem()": {
        "notice": "Events"
      }
    },
    "kind": "user",
    "methods": {},
    "notice": "Contrat de vote, getsion par un superadmin",
    "version": 1
  }
}